{
  "_format": "hh3-artifact-1",
  "contractName": "VoltzAttestation",
  "sourceName": "contracts/VoltzAttestation.sol",
  "abi": [
    {
      "inputs": [],
      "stateMutability": "nonpayable",
      "type": "constructor"
    },
    {
      "inputs": [],
      "name": "AccessControlBadConfirmation",
      "type": "error"
    },
    {
      "inputs": [
        {
          "internalType": "address",
          "name": "account",
          "type": "address"
        },
        {
          "internalType": "bytes32",
          "name": "neededRole",
          "type": "bytes32"
        }
      ],
      "name": "AccessControlUnauthorizedAccount",
      "type": "error"
    },
    {
      "anonymous": false,
      "inputs": [
        {
          "indexed": true,
          "internalType": "uint256",
          "name": "id",
          "type": "uint256"
        },
        {
          "indexed": true,
          "internalType": "address",
          "name": "subject",
          "type": "address"
        },
        {
          "indexed": false,
          "internalType": "enum VoltzAttestation.AttestationType",
          "name": "attestationType",
          "type": "uint8"
        },
        {
          "indexed": false,
          "internalType": "string",
          "name": "claim",
          "type": "string"
        }
      ],
      "name": "AttestationCreated",
      "type": "event"
    },
    {
      "anonymous": false,
      "inputs": [
        {
          "indexed": true,
          "internalType": "uint256",
          "name": "id",
          "type": "uint256"
        }
      ],
      "name": "AttestationRevoked",
      "type": "event"
    },
    {
      "anonymous": false,
      "inputs": [
        {
          "indexed": true,
          "internalType": "bytes32",
          "name": "role",
          "type": "bytes32"
        },
        {
          "indexed": true,
          "internalType": "bytes32",
          "name": "previousAdminRole",
          "type": "bytes32"
        },
        {
          "indexed": true,
          "internalType": "bytes32",
          "name": "newAdminRole",
          "type": "bytes32"
        }
      ],
      "name": "RoleAdminChanged",
      "type": "event"
    },
    {
      "anonymous": false,
      "inputs": [
        {
          "indexed": true,
          "internalType": "bytes32",
          "name": "role",
          "type": "bytes32"
        },
        {
          "indexed": true,
          "internalType": "address",
          "name": "account",
          "type": "address"
        },
        {
          "indexed": true,
          "internalType": "address",
          "name": "sender",
          "type": "address"
        }
      ],
      "name": "RoleGranted",
      "type": "event"
    },
    {
      "anonymous": false,
      "inputs": [
        {
          "indexed": true,
          "internalType": "bytes32",
          "name": "role",
          "type": "bytes32"
        },
        {
          "indexed": true,
          "internalType": "address",
          "name": "account",
          "type": "address"
        },
        {
          "indexed": true,
          "internalType": "address",
          "name": "sender",
          "type": "address"
        }
      ],
      "name": "RoleRevoked",
      "type": "event"
    },
    {
      "inputs": [],
      "name": "ADMIN_ROLE",
      "outputs": [
        {
          "internalType": "bytes32",
          "name": "",
          "type": "bytes32"
        }
      ],
      "stateMutability": "view",
      "type": "function"
    },
    {
      "inputs": [],
      "name": "DEFAULT_ADMIN_ROLE",
      "outputs": [
        {
          "internalType": "bytes32",
          "name": "",
          "type": "bytes32"
        }
      ],
      "stateMutability": "view",
      "type": "function"
    },
    {
      "inputs": [],
      "name": "VERIFIER_ROLE",
      "outputs": [
        {
          "internalType": "bytes32",
          "name": "",
          "type": "bytes32"
        }
      ],
      "stateMutability": "view",
      "type": "function"
    },
    {
      "inputs": [
        {
          "internalType": "uint256",
          "name": "",
          "type": "uint256"
        }
      ],
      "name": "attestations",
      "outputs": [
        {
          "internalType": "uint256",
          "name": "id",
          "type": "uint256"
        },
        {
          "internalType": "address",
          "name": "subject",
          "type": "address"
        },
        {
          "internalType": "enum VoltzAttestation.AttestationType",
          "name": "attestationType",
          "type": "uint8"
        },
        {
          "internalType": "string",
          "name": "claim",
          "type": "string"
        },
        {
          "internalType": "bytes32",
          "name": "proofHash",
          "type": "bytes32"
        },
        {
          "internalType": "string",
          "name": "proofURI",
          "type": "string"
        },
        {
          "internalType": "address",
          "name": "verifier",
          "type": "address"
        },
        {
          "internalType": "uint256",
          "name": "timestamp",
          "type": "uint256"
        },
        {
          "internalType": "uint256",
          "name": "expiresAt",
          "type": "uint256"
        },
        {
          "internalType": "bool",
          "name": "revoked",
          "type": "bool"
        }
      ],
      "stateMutability": "view",
      "type": "function"
    },
    {
      "inputs": [
        {
          "internalType": "enum VoltzAttestation.AttestationType",
          "name": "",
          "type": "uint8"
        },
        {
          "internalType": "address",
          "name": "",
          "type": "address"
        },
        {
          "internalType": "uint256",
          "name": "",
          "type": "uint256"
        }
      ],
      "name": "attestationsByType",
      "outputs": [
        {
          "internalType": "uint256",
          "name": "",
          "type": "uint256"
        }
      ],
      "stateMutability": "view",
      "type": "function"
    },
    {
      "inputs": [
        {
          "internalType": "address",
          "name": "subject",
          "type": "address"
        },
        {
          "internalType": "enum VoltzAttestation.AttestationType",
          "name": "attestationType",
          "type": "uint8"
        },
        {
          "internalType": "string",
          "name": "claim",
          "type": "string"
        },
        {
          "internalType": "bytes32",
          "name": "proofHash",
          "type": "bytes32"
        },
        {
          "internalType": "string",
          "name": "proofURI",
          "type": "string"
        },
        {
          "internalType": "uint256",
          "name": "expiresAt",
          "type": "uint256"
        }
      ],
      "name": "createAttestation",
      "outputs": [
        {
          "internalType": "uint256",
          "name": "",
          "type": "uint256"
        }
      ],
      "stateMutability": "nonpayable",
      "type": "function"
    },
    {
      "inputs": [
        {
          "internalType": "enum VoltzAttestation.AttestationType",
          "name": "attestationType",
          "type": "uint8"
        },
        {
          "internalType": "address",
          "name": "user",
          "type": "address"
        }
      ],
      "name": "getAttestationsByType",
      "outputs": [
        {
          "internalType": "uint256[]",
          "name": "",
          "type": "uint256[]"
        }
      ],
      "stateMutability": "view",
      "type": "function"
    },
    {
      "inputs": [
        {
          "internalType": "bytes32",
          "name": "role",
          "type": "bytes32"
        }
      ],
      "name": "getRoleAdmin",
      "outputs": [
        {
          "internalType": "bytes32",
          "name": "",
          "type": "bytes32"
        }
      ],
      "stateMutability": "view",
      "type": "function"
    },
    {
      "inputs": [
        {
          "internalType": "address",
          "name": "user",
          "type": "address"
        }
      ],
      "name": "getUserAttestations",
      "outputs": [
        {
          "internalType": "uint256[]",
          "name": "",
          "type": "uint256[]"
        }
      ],
      "stateMutability": "view",
      "type": "function"
    },
    {
      "inputs": [
        {
          "internalType": "address",
          "name": "user",
          "type": "address"
        }
      ],
      "name": "getValidAttestations",
      "outputs": [
        {
          "components": [
            {
              "internalType": "uint256",
              "name": "id",
              "type": "uint256"
            },
            {
              "internalType": "address",
              "name": "subject",
              "type": "address"
            },
            {
              "internalType": "enum VoltzAttestation.AttestationType",
              "name": "attestationType",
              "type": "uint8"
            },
            {
              "internalType": "string",
              "name": "claim",
              "type": "string"
            },
            {
              "internalType": "bytes32",
              "name": "proofHash",
              "type": "bytes32"
            },
            {
              "internalType": "string",
              "name": "proofURI",
              "type": "string"
            },
            {
              "internalType": "address",
              "name": "verifier",
              "type": "address"
            },
            {
              "internalType": "uint256",
              "name": "timestamp",
              "type": "uint256"
            },
            {
              "internalType": "uint256",
              "name": "expiresAt",
              "type": "uint256"
            },
            {
              "internalType": "bool",
              "name": "revoked",
              "type": "bool"
            }
          ],
          "internalType": "struct VoltzAttestation.Attestation[]",
          "name": "",
          "type": "tuple[]"
        }
      ],
      "stateMutability": "view",
      "type": "function"
    },
    {
      "inputs": [
        {
          "internalType": "bytes32",
          "name": "role",
          "type": "bytes32"
        },
        {
          "internalType": "address",
          "name": "account",
          "type": "address"
        }
      ],
      "name": "grantRole",
      "outputs": [],
      "stateMutability": "nonpayable",
      "type": "function"
    },
    {
      "inputs": [
        {
          "internalType": "bytes32",
          "name": "role",
          "type": "bytes32"
        },
        {
          "internalType": "address",
          "name": "account",
          "type": "address"
        }
      ],
      "name": "hasRole",
      "outputs": [
        {
          "internalType": "bool",
          "name": "",
          "type": "bool"
        }
      ],
      "stateMutability": "view",
      "type": "function"
    },
    {
      "inputs": [
        {
          "internalType": "uint256",
          "name": "attestationId",
          "type": "uint256"
        }
      ],
      "name": "isValid",
      "outputs": [
        {
          "internalType": "bool",
          "name": "",
          "type": "bool"
        }
      ],
      "stateMutability": "view",
      "type": "function"
    },
    {
      "inputs": [
        {
          "internalType": "bytes32",
          "name": "role",
          "type": "bytes32"
        },
        {
          "internalType": "address",
          "name": "callerConfirmation",
          "type": "address"
        }
      ],
      "name": "renounceRole",
      "outputs": [],
      "stateMutability": "nonpayable",
      "type": "function"
    },
    {
      "inputs": [
        {
          "internalType": "uint256",
          "name": "attestationId",
          "type": "uint256"
        }
      ],
      "name": "revokeAttestation",
      "outputs": [],
      "stateMutability": "nonpayable",
      "type": "function"
    },
    {
      "inputs": [
        {
          "internalType": "bytes32",
          "name": "role",
          "type": "bytes32"
        },
        {
          "internalType": "address",
          "name": "account",
          "type": "address"
        }
      ],
      "name": "revokeRole",
      "outputs": [],
      "stateMutability": "nonpayable",
      "type": "function"
    },
    {
      "inputs": [
        {
          "internalType": "bytes4",
          "name": "interfaceId",
          "type": "bytes4"
        }
      ],
      "name": "supportsInterface",
      "outputs": [
        {
          "internalType": "bool",
          "name": "",
          "type": "bool"
        }
      ],
      "stateMutability": "view",
      "type": "function"
    },
    {
      "inputs": [
        {
          "internalType": "bytes32",
          "name": "",
          "type": "bytes32"
        }
      ],
      "name": "usedProofs",
      "outputs": [
        {
          "internalType": "bool",
          "name": "",
          "type": "bool"
        }
      ],
      "stateMutability": "view",
      "type": "function"
    },
    {
      "inputs": [
        {
          "internalType": "address",
          "name": "",
          "type": "address"
        },
        {
          "internalType": "uint256",
          "name": "",
          "type": "uint256"
        }
      ],
      "name": "userAttestations",
      "outputs": [
        {
          "internalType": "uint256",
          "name": "",
          "type": "uint256"
        }
      ],
      "stateMutability": "view",
      "type": "function"
    },
    {
      "inputs": [
        {
          "internalType": "uint256",
          "name": "attestationId",
          "type": "uint256"
        },
        {
          "internalType": "bytes32",
          "name": "proofHash",
          "type": "bytes32"
        }
      ],
      "name": "verifyProof",
      "outputs": [
        {
          "internalType": "bool",
          "name": "",
          "type": "bool"
        }
      ],
      "stateMutability": "view",
      "type": "function"
    }
  ],
  "bytecode": "0x60806040523461003a576100123361003e565b5061001c336100b4565b5061002633610147565b50600180556040516115a790816101db8239f35b5f80fd5b6001600160a01b0381165f9081525f5160206117e25f395f51905f52602052604090205460ff166100af576001600160a01b03165f8181525f5160206117e25f395f51905f5260205260408120805460ff191660011790553391905f5160206117825f395f51905f528180a4600190565b505f90565b6001600160a01b0381165f9081525f5160206117a25f395f51905f52602052604090205460ff166100af576001600160a01b03165f8181525f5160206117a25f395f51905f5260205260408120805460ff191660011790553391907fa49807205ce4d355092ef5a8a18f56e8913cf4a201fbe287825b095693c21775905f5160206117825f395f51905f529080a4600190565b6001600160a01b0381165f9081525f5160206117c25f395f51905f52602052604090205460ff166100af576001600160a01b03165f8181525f5160206117c25f395f51905f5260205260408120805460ff191660011790553391907f0ce23c3e399818cfee81a7ab0880f714e53d7672b08df0fa62f2843416e1ea09905f5160206117825f395f51905f529080a460019056fe60806040526004361015610011575f80fd5b5f3560e01c806301daf26b14610fd557806301ffc9a714610f805780631cf2bbc914610f37578063248a9ca314610f055780632f2ff15d14610ec857806336568abe14610e8457806371f617d814610e1d57806375b238fc14610de35780637fbb194914610c9c57806381b0d14014610972578063837ac4911461038257806391d148541461033a5780639658e1ef146102c85780639eeb26c61461027d578063a217fddf14610263578063ad9b867f146101ce578063c30a0f251461019f578063d547741f1461015b578063e7705db6146101215763f577a500146100f5575f80fd5b3461011d57602036600319011261011d576020610113600435611384565b6040519015158152f35b5f80fd5b3461011d575f36600319011261011d5760206040517f0ce23c3e399818cfee81a7ab0880f714e53d7672b08df0fa62f2843416e1ea098152f35b3461011d57604036600319011261011d5761019d60043561017a61120c565b90610198610193825f525f602052600160405f20015490565b61145a565b61151a565b005b3461011d57602036600319011261011d576004355f526005602052602060ff60405f2054166040519015158152f35b3461011d57604036600319011261011d57600435600481101561011d576101fc6101f661120c565b9161124b565b9060018060a01b03165f5260205260405f206040519081602082549182815201915f5260205f20905f5b81811061024d576102498561023d81870382611103565b604051918291826112b8565b0390f35b8254845260209093019260019283019201610226565b3461011d575f36600319011261011d5760206040515f8152f35b3461011d57604036600319011261011d576020600435805f5260028252602435600360405f2001541490816102b8575b506040519015158152f35b6102c29150611384565b826102ad565b3461011d57602036600319011261011d576001600160a01b036102e96111f6565b165f52600360205260405f206040519081602082549182815201915f5260205f20905f5b818110610324576102498561023d81870382611103565b825484526020909301926001928301920161030d565b3461011d57604036600319011261011d5761035361120c565b6004355f525f60205260405f209060018060a01b03165f52602052602060ff60405f2054166040519015158152f35b3461011d5760c036600319011261011d5761039b6111f6565b6004602435101561011d5760443567ffffffffffffffff811161011d576103c6903690600401611262565b60843567ffffffffffffffff811161011d576103e6903690600401611262565b335f9081527f1da0b5176dfe03406af5a6eed66ca01dda9b45ac4da671c3fa379cb93717ef81602052604090205490919060a4359060ff161561093b576064355f52600560205260ff60405f20541661090157801580156108f8575b156108b35760015492600184016001556040519161045f836110e6565b8483526001600160a01b038616602084019081526040840192906104856024358561133f565b606085018681526080860191606435835260a0870193845260c08701943386524260e08901526101008801525f610120880152885f52600260205260405f209587518755600187019160018060a01b039060018060a01b03905116166bffffffffffffffffffffffff60a01b83541617825551600481101561089f57815460ff60a01b191660a09190911b60ff60a01b16179055518051600286019167ffffffffffffffff82116107cd57819061053c84546110ae565b601f811161084f575b50602090601f83116001146107ec575f926107e1575b50508160011b915f199060031b1c19161790555b5160038401555180519067ffffffffffffffff82116107cd5761059560048501546110ae565b601f8111610785575b509160209793918795938990601f83116001146106eb57936106d5959383610120946008947f68e832c507e5e252b8150407e937743b02cab78a3a4873337fe7d7ea1c7fab199a985f926106e0575b50508160011b915f199060031b1c19161760048301555b516005820180546001600160a01b039283166001600160a01b031990911617905560e08501516006830155610100850151600783015592909301519201805460ff191692151560ff169290921790915581165f908152600388526040902061066d90859061134b565b61067860243561124b565b60018060a01b0382165f5287526106928460405f2061134b565b6064355f526005875260405f20600160ff198254161790556040519182916106bc836024356111c5565b60408984015260018060a01b03169560408301906111d2565b0390a3604051908152f35b015190508e806105ed565b90600485015f52805f20915f5b601f198516811061076b5750936001846008947f68e832c507e5e252b8150407e937743b02cab78a3a4873337fe7d7ea1c7fab199a98946106d59a9861012098601f19811610610753575b505050811b016004830155610604565b01515f1960f88460031b161c191690558e8080610743565b8183015184558b9950600190930192918c01918c016106f8565b600485015f5260205f20601f840160051c810191602085106107c3575b601f0160051c01905b8181106107b8575061059e565b5f81556001016107ab565b90915081906107a2565b634e487b7160e01b5f52604160045260245ffd5b015190508b8061055b565b5f8581528281209350601f198516905b818110610837575090846001959493921061081f575b505050811b01905561056f565b01515f1960f88460031b161c191690558b8080610812565b929360206001819287860151815501950193016107fc565b909150835f5260205f20601f840160051c81019160208510610895575b90601f859493920160051c01905b8181106108875750610545565b5f815584935060010161087a565b909150819061086c565b634e487b7160e01b5f52602160045260245ffd5b60405162461bcd60e51b815260206004820152601c60248201527f45787069726174696f6e206d75737420626520696e20667574757265000000006044820152606490fd5b50428111610442565b60405162461bcd60e51b8152602060048201526012602482015271141c9bdbd988185b1c9958591e481d5cd95960721b6044820152606490fd5b63e2517d3f60e01b5f52336004527f0ce23c3e399818cfee81a7ab0880f714e53d7672b08df0fa62f2843416e1ea0960245260445ffd5b3461011d57602036600319011261011d576001600160a01b036109936111f6565b165f52600360205260405f20604051808260208294549384815201905f5260205f20925f5b818110610c835750506109cd92500382611103565b5f5f5b8251811015610a0d576109ec6109e682856112f1565b51611384565b6109f9575b6001016109d0565b90610a05600191611305565b9190506109f1565b50610a1781611327565b90610a256040519283611103565b808252610a34601f1991611327565b015f5b818110610c2d5750505f905f5b8351811015610b3b57610a5a6109e682866112f1565b610a67575b600101610a44565b91610b33600191610a7885876112f1565b515f52600260205260405f2060ff600860405192610a95846110e6565b80548452610abb8388830154898060a01b038116602088015260a01c166040860161133f565b610ac760028201611125565b606085015260038101546080850152610ae260048201611125565b60a0850152868060a01b0360058201541660c0850152600681015460e085015260078101546101008501520154161515610120820152610b2282866112f1565b52610b2d81856112f1565b50611305565b929050610a5f565b506040518091602082016020835281518091526040830190602060408260051b8601019301915f905b828210610b7357505050500390f35b919360019193955060208091603f1989820301855287519081518152848060a01b03838301511683820152610bb0604083015160408301906111c5565b61012080610bee610bd2606086015161014060608701526101408601906111d2565b6080860151608086015260a086015185820360a08701526111d2565b93878060a01b0360c08201511660c085015260e081015160e0850152610100810151610100850152015115159101529601920192018594939192610b64565b602090604051610c3c816110e6565b5f81525f838201525f60408201526060808201525f6080820152606060a08201525f60c08201525f60e08201525f6101008201525f61012082015282828601015201610a37565b84548352600194850194869450602090930192016109b8565b3461011d57602036600319011261011d57600435805f52600260205260405f2060018060a01b0360058201541633148015610dcd575b8015610d96575b15610d5157600801805460ff8116610d1a5760ff191660011790557f2cf37b6393103617c10b15f56039e3bd6fc1b07320419c47020a05a36805e0445f80a2005b60405162461bcd60e51b815260206004820152600f60248201526e105b1c9958591e481c995d9bdad959608a1b6044820152606490fd5b60405162461bcd60e51b815260206004820152601860248201527f4e6f7420617574686f72697a656420746f207265766f6b6500000000000000006044820152606490fd5b50335f9081527f7d7ffb7a348e1c6a02869081a26547b49160dd3df72d1d75a570eb9b698292ec602052604090205460ff16610cd9565b5060018101546001600160a01b03163314610cd2565b3461011d575f36600319011261011d5760206040517fa49807205ce4d355092ef5a8a18f56e8913cf4a201fbe287825b095693c217758152f35b3461011d57606036600319011261011d57600435600481101561011d57610e4261120c565b610e4e6044359261124b565b9060018060a01b03165f5260205260405f20805482101561011d57602091610e7591611222565b90549060031b1c604051908152f35b3461011d57604036600319011261011d57610e9d61120c565b336001600160a01b03821603610eb95761019d9060043561151a565b63334bd91960e11b5f5260045ffd5b3461011d57604036600319011261011d5761019d600435610ee761120c565b90610f00610193825f525f602052600160405f20015490565b611492565b3461011d57602036600319011261011d576020610f2f6004355f525f602052600160405f20015490565b604051908152f35b3461011d57604036600319011261011d57610f506111f6565b6001600160a01b03165f9081526003602052604090208054602435919082101561011d57602091610e7591611222565b3461011d57602036600319011261011d5760043563ffffffff60e01b811680910361011d57602090637965db0b60e01b8114908115610fc457506040519015158152f35b6301ffc9a760e01b149050826102ad565b3461011d57602036600319011261011d576004355f52600260205260405f20805460018201549161100860028201611125565b60038201549161101a60048201611125565b61109160018060a01b036005840154169460068401549261107e60ff60086007880154970154169661106b6040519b8c9b8c5260018060a01b03811660208d015260ff60408d019160a01c166111c5565b61014060608b01526101408a01906111d2565b91608089015287820360a08901526111d2565b9360c086015260e085015261010084015215156101208301520390f35b90600182811c921680156110dc575b60208310146110c857565b634e487b7160e01b5f52602260045260245ffd5b91607f16916110bd565b610140810190811067ffffffffffffffff8211176107cd57604052565b90601f8019910116810190811067ffffffffffffffff8211176107cd57604052565b9060405191825f825492611138846110ae565b80845293600181169081156111a3575060011461115f575b5061115d92500383611103565b565b90505f9291925260205f20905f915b81831061118757505090602061115d928201015f611150565b602091935080600191548385890101520191019091849261116e565b90506020925061115d94915060ff191682840152151560051b8201015f611150565b90600482101561089f5752565b805180835260209291819084018484015e5f828201840152601f01601f1916010190565b600435906001600160a01b038216820361011d57565b602435906001600160a01b038216820361011d57565b8054821015611237575f5260205f2001905f90565b634e487b7160e01b5f52603260045260245ffd5b600481101561089f575f52600460205260405f2090565b81601f8201121561011d5780359067ffffffffffffffff82116107cd5760405192611297601f8401601f191660200185611103565b8284526020838301011161011d57815f926020809301838601378301015290565b60206040818301928281528451809452019201905f5b8181106112db5750505090565b82518452602093840193909201916001016112ce565b80518210156112375760209160051b010190565b5f1981146113135760010190565b634e487b7160e01b5f52601160045260245ffd5b67ffffffffffffffff81116107cd5760051b60200190565b600482101561089f5752565b8054680100000000000000008110156107cd5761136d91600182018155611222565b819291549060031b91821b915f19901b1916179055565b5f52600260205260405f2061012060405161139e816110e6565b8254815260018301546001600160a01b03811660208301526113c99060a01c60ff166040830161133f565b6113d560028401611125565b6060820152600383015460808201526113f060048401611125565b60a082015260058301546001600160a01b031660c0820152600683015460e08201526007830154610100820181905260089093015460ff161515910181905261145557801515908161144b575b5061144757600190565b5f90565b905042115f61143d565b505f90565b5f8181526020818152604080832033845290915290205460ff161561147c5750565b63e2517d3f60e01b5f523360045260245260445ffd5b5f818152602081815260408083206001600160a01b038616845290915290205460ff16611514575f818152602081815260408083206001600160a01b0395909516808452949091528120805460ff19166001179055339291907f2f8788117e7eff1d82e926ec794901d17c78024a50270940304540a733656f0d9080a4600190565b50505f90565b5f818152602081815260408083206001600160a01b038616845290915290205460ff1615611514575f818152602081815260408083206001600160a01b0395909516808452949091528120805460ff19169055339291907ff6391f5c32d9c69d2a47ea670b442974b53935d1edc7fd64eb21e047a839171b9080a460019056fea164736f6c634300081c000a2f8788117e7eff1d82e926ec794901d17c78024a50270940304540a733656f0d7d7ffb7a348e1c6a02869081a26547b49160dd3df72d1d75a570eb9b698292ec1da0b5176dfe03406af5a6eed66ca01dda9b45ac4da671c3fa379cb93717ef81ad3228b676f7d3cd4284a5443f17f1962b36e491b30a40b2405849e597ba5fb5",
  "linkReferences": {},
  "deployedLinkReferences": {},
  "immutableReferences": {},
  "inputSourceName": "project/contracts/VoltzAttestation.sol",
  "buildInfoId": "solc-0_8_28-20e674dec667c76c6e8250e650b386e995a9b094"
}