{
  "_format": "hh3-artifact-1",
  "contractName": "VoltzEvent",
  "sourceName": "contracts/VoltzEvent.sol",
  "abi": [
    {
      "inputs": [
        {
          "internalType": "address",
          "name": "_profileContract",
          "type": "address"
        }
      ],
      "stateMutability": "nonpayable",
      "type": "constructor"
    },
    {
      "inputs": [
        {
          "internalType": "address",
          "name": "owner",
          "type": "address"
        }
      ],
      "name": "OwnableInvalidOwner",
      "type": "error"
    },
    {
      "inputs": [
        {
          "internalType": "address",
          "name": "account",
          "type": "address"
        }
      ],
      "name": "OwnableUnauthorizedAccount",
      "type": "error"
    },
    {
      "anonymous": false,
      "inputs": [
        {
          "indexed": true,
          "internalType": "uint256",
          "name": "eventId",
          "type": "uint256"
        },
        {
          "indexed": true,
          "internalType": "address",
          "name": "attendee",
          "type": "address"
        }
      ],
      "name": "AttendeeCheckedIn",
      "type": "event"
    },
    {
      "anonymous": false,
      "inputs": [
        {
          "indexed": true,
          "internalType": "uint256",
          "name": "eventId",
          "type": "uint256"
        },
        {
          "indexed": true,
          "internalType": "address",
          "name": "attendee",
          "type": "address"
        }
      ],
      "name": "AttendeeRegistered",
      "type": "event"
    },
    {
      "anonymous": false,
      "inputs": [
        {
          "indexed": true,
          "internalType": "uint256",
          "name": "eventId",
          "type": "uint256"
        }
      ],
      "name": "EventCancelled",
      "type": "event"
    },
    {
      "anonymous": false,
      "inputs": [
        {
          "indexed": true,
          "internalType": "uint256",
          "name": "eventId",
          "type": "uint256"
        },
        {
          "indexed": false,
          "internalType": "string",
          "name": "name",
          "type": "string"
        },
        {
          "indexed": true,
          "internalType": "address",
          "name": "organizer",
          "type": "address"
        }
      ],
      "name": "EventCreated",
      "type": "event"
    },
    {
      "anonymous": false,
      "inputs": [
        {
          "indexed": true,
          "internalType": "uint256",
          "name": "eventId",
          "type": "uint256"
        }
      ],
      "name": "EventUpdated",
      "type": "event"
    },
    {
      "anonymous": false,
      "inputs": [
        {
          "indexed": true,
          "internalType": "address",
          "name": "previousOwner",
          "type": "address"
        },
        {
          "indexed": true,
          "internalType": "address",
          "name": "newOwner",
          "type": "address"
        }
      ],
      "name": "OwnershipTransferred",
      "type": "event"
    },
    {
      "inputs": [
        {
          "internalType": "uint256",
          "name": "eventId",
          "type": "uint256"
        }
      ],
      "name": "cancelEvent",
      "outputs": [],
      "stateMutability": "nonpayable",
      "type": "function"
    },
    {
      "inputs": [
        {
          "internalType": "uint256",
          "name": "eventId",
          "type": "uint256"
        },
        {
          "internalType": "address",
          "name": "attendee",
          "type": "address"
        }
      ],
      "name": "checkIn",
      "outputs": [],
      "stateMutability": "nonpayable",
      "type": "function"
    },
    {
      "inputs": [
        {
          "internalType": "string",
          "name": "name",
          "type": "string"
        },
        {
          "internalType": "string",
          "name": "description",
          "type": "string"
        },
        {
          "internalType": "string",
          "name": "location",
          "type": "string"
        },
        {
          "internalType": "uint256",
          "name": "startTime",
          "type": "uint256"
        },
        {
          "internalType": "uint256",
          "name": "endTime",
          "type": "uint256"
        },
        {
          "internalType": "uint256",
          "name": "maxAttendees",
          "type": "uint256"
        },
        {
          "internalType": "string",
          "name": "metadataURI",
          "type": "string"
        }
      ],
      "name": "createEvent",
      "outputs": [
        {
          "internalType": "uint256",
          "name": "",
          "type": "uint256"
        }
      ],
      "stateMutability": "nonpayable",
      "type": "function"
    },
    {
      "inputs": [
        {
          "internalType": "uint256",
          "name": "",
          "type": "uint256"
        },
        {
          "internalType": "uint256",
          "name": "",
          "type": "uint256"
        }
      ],
      "name": "eventAttendees",
      "outputs": [
        {
          "internalType": "address",
          "name": "",
          "type": "address"
        }
      ],
      "stateMutability": "view",
      "type": "function"
    },
    {
      "inputs": [
        {
          "internalType": "uint256",
          "name": "",
          "type": "uint256"
        }
      ],
      "name": "events",
      "outputs": [
        {
          "internalType": "string",
          "name": "name",
          "type": "string"
        },
        {
          "internalType": "string",
          "name": "description",
          "type": "string"
        },
        {
          "internalType": "string",
          "name": "location",
          "type": "string"
        },
        {
          "internalType": "uint256",
          "name": "startTime",
          "type": "uint256"
        },
        {
          "internalType": "uint256",
          "name": "endTime",
          "type": "uint256"
        },
        {
          "internalType": "address",
          "name": "organizer",
          "type": "address"
        },
        {
          "internalType": "uint256",
          "name": "maxAttendees",
          "type": "uint256"
        },
        {
          "internalType": "uint256",
          "name": "registeredCount",
          "type": "uint256"
        },
        {
          "internalType": "uint256",
          "name": "checkedInCount",
          "type": "uint256"
        },
        {
          "internalType": "bool",
          "name": "isActive",
          "type": "bool"
        },
        {
          "internalType": "string",
          "name": "metadataURI",
          "type": "string"
        }
      ],
      "stateMutability": "view",
      "type": "function"
    },
    {
      "inputs": [
        {
          "internalType": "uint256",
          "name": "eventId",
          "type": "uint256"
        }
      ],
      "name": "getEventAttendees",
      "outputs": [
        {
          "internalType": "address[]",
          "name": "",
          "type": "address[]"
        }
      ],
      "stateMutability": "view",
      "type": "function"
    },
    {
      "inputs": [
        {
          "internalType": "address",
          "name": "user",
          "type": "address"
        }
      ],
      "name": "getUserEvents",
      "outputs": [
        {
          "internalType": "uint256[]",
          "name": "",
          "type": "uint256[]"
        }
      ],
      "stateMutability": "view",
      "type": "function"
    },
    {
      "inputs": [
        {
          "internalType": "uint256",
          "name": "eventId",
          "type": "uint256"
        },
        {
          "internalType": "address",
          "name": "user",
          "type": "address"
        }
      ],
      "name": "isCheckedIn",
      "outputs": [
        {
          "internalType": "bool",
          "name": "",
          "type": "bool"
        }
      ],
      "stateMutability": "view",
      "type": "function"
    },
    {
      "inputs": [
        {
          "internalType": "uint256",
          "name": "eventId",
          "type": "uint256"
        },
        {
          "internalType": "address",
          "name": "user",
          "type": "address"
        }
      ],
      "name": "isRegistered",
      "outputs": [
        {
          "internalType": "bool",
          "name": "",
          "type": "bool"
        }
      ],
      "stateMutability": "view",
      "type": "function"
    },
    {
      "inputs": [],
      "name": "owner",
      "outputs": [
        {
          "internalType": "address",
          "name": "",
          "type": "address"
        }
      ],
      "stateMutability": "view",
      "type": "function"
    },
    {
      "inputs": [],
      "name": "profileContract",
      "outputs": [
        {
          "internalType": "address",
          "name": "",
          "type": "address"
        }
      ],
      "stateMutability": "view",
      "type": "function"
    },
    {
      "inputs": [
        {
          "internalType": "uint256",
          "name": "eventId",
          "type": "uint256"
        },
        {
          "internalType": "string",
          "name": "goals",
          "type": "string"
        }
      ],
      "name": "registerForEvent",
      "outputs": [],
      "stateMutability": "nonpayable",
      "type": "function"
    },
    {
      "inputs": [
        {
          "internalType": "uint256",
          "name": "",
          "type": "uint256"
        },
        {
          "internalType": "address",
          "name": "",
          "type": "address"
        }
      ],
      "name": "registrations",
      "outputs": [
        {
          "internalType": "uint256",
          "name": "eventId",
          "type": "uint256"
        },
        {
          "internalType": "address",
          "name": "attendee",
          "type": "address"
        },
        {
          "internalType": "uint256",
          "name": "registeredAt",
          "type": "uint256"
        },
        {
          "internalType": "bool",
          "name": "checkedIn",
          "type": "bool"
        },
        {
          "internalType": "uint256",
          "name": "checkedInAt",
          "type": "uint256"
        },
        {
          "internalType": "string",
          "name": "goals",
          "type": "string"
        }
      ],
      "stateMutability": "view",
      "type": "function"
    },
    {
      "inputs": [],
      "name": "renounceOwnership",
      "outputs": [],
      "stateMutability": "nonpayable",
      "type": "function"
    },
    {
      "inputs": [
        {
          "internalType": "address",
          "name": "_profileContract",
          "type": "address"
        }
      ],
      "name": "setProfileContract",
      "outputs": [],
      "stateMutability": "nonpayable",
      "type": "function"
    },
    {
      "inputs": [
        {
          "internalType": "address",
          "name": "newOwner",
          "type": "address"
        }
      ],
      "name": "transferOwnership",
      "outputs": [],
      "stateMutability": "nonpayable",
      "type": "function"
    },
    {
      "inputs": [
        {
          "internalType": "uint256",
          "name": "eventId",
          "type": "uint256"
        },
        {
          "internalType": "string",
          "name": "metadataURI",
          "type": "string"
        }
      ],
      "name": "updateEvent",
      "outputs": [],
      "stateMutability": "nonpayable",
      "type": "function"
    },
    {
      "inputs": [
        {
          "internalType": "address",
          "name": "",
          "type": "address"
        },
        {
          "internalType": "uint256",
          "name": "",
          "type": "uint256"
        }
      ],
      "name": "userEvents",
      "outputs": [
        {
          "internalType": "uint256",
          "name": "",
          "type": "uint256"
        }
      ],
      "stateMutability": "view",
      "type": "function"
    }
  ],
  "bytecode": "0x60803460d157601f61199638819003918201601f19168301916001600160401b0383118484101760d55780849260209460405283398101031260d157516001600160a01b0381169081900360d157331560be575f8054336001600160a01b0319821681178355604051939290916001600160a01b0316907f8be0079c531659141344cd1fd0a4f28419497f9722a3daafe3b4186f6b6457e09080a3600680546001600160a01b031916919091179055600180556118ac90816100ea8239f35b631e4fbdf760e01b5f525f60045260245ffd5b5f80fd5b634e487b7160e01b5f52604160045260245ffdfe60806040526004361015610011575f80fd5b5f3560e01c80623147d71461115e5780630b79143014611066578063171e5ba214610fb257806333d9b7cd14610e4b57806339da8a2414610dff5780633f69babd14610d8c578063715018a614610d355780638da5cb5b14610d0e5780638db8214e14610ccb578063a3974b2114610ca3578063ad395c1414610beb578063ad8d5eff146109bf578063b1ed1e6c14610920578063b81f6e18146108d1578063bdfc989314610879578063ddc120af146101b7578063f2fde38b146101325763fb690d59146100de575f80fd5b3461012e57604036600319011261012e576024356004355f52600460205260405f20805482101561012e5760209161011591611745565b905460405160039290921b1c6001600160a01b03168152f35b5f80fd5b3461012e57602036600319011261012e5761014b611719565b610153611879565b6001600160a01b031680156101a4575f80546001600160a01b03198116831782556001600160a01b0316907f8be0079c531659141344cd1fd0a4f28419497f9722a3daafe3b4186f6b6457e09080a3005b631e4fbdf760e01b5f525f60045260245ffd5b3461012e5760e036600319011261012e576004356001600160401b03811161012e576101e7903690600401611596565b6024356001600160401b03811161012e57610206903690600401611596565b6044356001600160401b03811161012e57610225903690600401611596565b91606435916084359060c4356001600160401b03811161012e5761024d903690600401611596565b944285111561083557848311156107e65760015494600186016001556040519361016085018581106001600160401b03821117610595576040528585526020850193845260408501928352606085019182526080850190815260a0850133815260c086019160a435835260e08701935f85526101008801955f8752610120890197600189526101408a019c8d528b5f52600260205260405f2099518051906001600160401b0382116105955781906103058d5461161d565b601f8111610796575b50602090601f8311600114610733575f92610728575b50508160011b915f199060031b1c1916178a555b51805160018b01916001600160401b03821161059557819061035a845461161d565b601f81116106d8575b50602090601f8311600114610675575f9261066a575b50508160011b915f199060031b1c19161790555b51805160028a01916001600160401b038211610595576103ad835461161d565b601f8111610625575b50602090601f83116001146105b457918061044d9a98969492600a9d9c9a9896945f926105a9575b50508160011b915f199060031b1c19161790555b516003890155516004880155516005870180546001600160a01b039092166001600160a01b03199092169190911790555160068601555160078501555160088401555160098301805460ff191691151560ff16919091179055565b0192519283516001600160401b0381116105955761046b825461161d565b601f8111610550575b50806020958690601f83116001146104ee575f926104e3575b50508160011b915f199060031b1c19161790555b817f40fb05b814a900c99fa0a76d919dfdeaf3389540e4ca70f97ba40ca9a38f3797604051858152806104d83395888301906116f5565b0390a3604051908152f35b01519050868061048d565b5f8581528281209350601f198516905b8181106105395750908460019594939210610521575b505050811b0190556104a1565b01515f1960f88460031b161c19169055868080610514565b9293896001819287860151815501950193016104fe565b825f5260205f20601f830160051c8101916020841061058b575b601f0160051c01905b8181106105805750610474565b5f8155600101610573565b909150819061056a565b634e487b7160e01b5f52604160045260245ffd5b015190505f806103de565b90601f19831691845f52815f20925f5b81811061060d5750926001928592600a9f9e9c9a989661044d9e9c9a9896106105f5575b505050811b0190556103f2565b01515f1960f88460031b161c191690555f80806105e8565b929360206001819287860151815501950193016105c4565b835f5260205f20601f840160051c81019160208510610660575b601f0160051c01905b81811061065557506103b6565b5f8155600101610648565b909150819061063f565b015190508f80610379565b5f8581528281209350601f198516905b8181106106c057509084600195949392106106a8575b505050811b01905561038d565b01515f1960f88460031b161c191690558f808061069b565b92936020600181928786015181550195019301610685565b909150835f5260205f20601f840160051c8101916020851061071e575b90601f859493920160051c01905b8181106107105750610363565b5f8155849350600101610703565b90915081906106f5565b015190508f80610324565b5f8e81528281209350601f198516905b81811061077e5750908460019594939210610766575b505050811b018a55610338565b01515f1960f88460031b161c191690558f8080610759565b92936020600181928786015181550195019301610743565b9091508c5f5260205f20601f840160051c810191602085106107dc575b90601f859493920160051c01905b8181106107ce575061030e565b5f81558493506001016107c1565b90915081906107b3565b60405162461bcd60e51b815260206004820152602160248201527f456e642074696d65206d7573742062652061667465722073746172742074696d6044820152606560f81b6064820152608490fd5b606460405162461bcd60e51b815260206004820152602060248201527f53746172742074696d65206d75737420626520696e20746865206675747572656044820152fd5b3461012e57604036600319011261012e57610892611719565b6001600160a01b03165f9081526005602052604090208054602435919082101561012e576020916108c291611745565b90549060031b1c604051908152f35b3461012e57604036600319011261012e576108ea61172f565b6004355f9081526003602090815260408083206001600160a01b0394851684528252918290206001015491519190921615158152f35b3461012e57604036600319011261012e5761093961172f565b6004355f52600360205260405f209060018060a01b03165f5260205260405f2080546109bb60018060a01b036001840154169260028101549060ff60038201541661098b600560048401549301611655565b9260405196879687526020870152604086015215156060850152608084015260c060a084015260c08301906116f5565b0390f35b3461012e57604036600319011261012e576004356109db61172f565b90805f52600260205260405f2091815f52600360205260405f2060018060a01b0382165f5260205260405f2092610a1860ff60098301541661176e565b60018401546001600160a01b031615610ba657600384019384549260ff8416610b6c576001600160a01b0316943386148015610b56575b15610b20576003830154610e0f198101908111610b0c5742101580610afe575b15610ab957600160089460ff191617905560044291015501610a9181546117b0565b90557fc483346e399931e8324715ae18c00b6a9845b402ffed76543154325e682232685f80a3005b60405162461bcd60e51b815260206004820152601a60248201527f4e6f742077697468696e20636865636b2d696e2077696e646f770000000000006044820152606490fd5b506004830154421115610a6f565b634e487b7160e01b5f52601160045260245ffd5b60405162461bcd60e51b815260206004820152600e60248201526d139bdd08185d5d1a1bdc9a5e995960921b6044820152606490fd5b5060058301546001600160a01b03163314610a4f565b60405162461bcd60e51b815260206004820152601260248201527120b63932b0b23c9031b432b1b5b2b21034b760711b6044820152606490fd5b60405162461bcd60e51b815260206004820152601d60248201527f4e6f74207265676973746572656420666f722074686973206576656e740000006044820152606490fd5b3461012e57602036600319011261012e576004355f52600460205260405f20604051806020835491828152019081935f5260205f20905f5b818110610c845750505081610c39910382611575565b604051918291602083019060208452518091526040830191905f5b818110610c62575050500390f35b82516001600160a01b0316845285945060209384019390920191600101610c54565b82546001600160a01b0316845260209093019260019283019201610c23565b3461012e575f36600319011261012e576006546040516001600160a01b039091168152602090f35b3461012e57602036600319011261012e57610ce4611719565b610cec611879565b600680546001600160a01b0319166001600160a01b0392909216919091179055005b3461012e575f36600319011261012e575f546040516001600160a01b039091168152602090f35b3461012e575f36600319011261012e57610d4d611879565b5f80546001600160a01b0319811682556001600160a01b03167f8be0079c531659141344cd1fd0a4f28419497f9722a3daafe3b4186f6b6457e08280a3005b3461012e57602036600319011261012e57600435805f526002602052610dc260018060a01b03600560405f2001541633146117be565b805f526002602052600960405f200160ff1981541690557fdc3cb569b066460f4a22dffa05317bdcce5d3826382ed49a21f13e5fa2063d395f80a2005b3461012e57604036600319011261012e57610e1861172f565b6004355f52600360205260405f209060018060a01b03165f52602052602060ff600360405f200154166040519015158152f35b3461012e57610e59366115eb565b90805f526002602052610e7c60018060a01b03600560405f2001541633146117be565b805f526002602052600a60405f200182516001600160401b03811161059557610ea5825461161d565b601f8111610f6d575b506020601f8211600114610f0c57819293945f92610f01575b50508160011b915f199060031b1c19161790555b7f809fa27991b070f066e1b77ccff5758336645c734a13941444cc6f45daa21a895f80a2005b015190508480610ec7565b601f19821690835f52805f20915f5b818110610f5557509583600195969710610f3d575b505050811b019055610edb565b01515f1960f88460031b161c19169055848080610f30565b9192602060018192868b015181550194019201610f1b565b825f5260205f20601f830160051c81019160208410610fa8575b601f0160051c01905b818110610f9d5750610eae565b5f8155600101610f90565b9091508190610f87565b3461012e57602036600319011261012e576001600160a01b03610fd3611719565b165f52600560205260405f20604051806020835491828152019081935f5260205f20905f5b818110611050575050508161100e910382611575565b604051918291602083019060208452518091526040830191905f5b818110611037575050500390f35b8251845285945060209384019390920191600101611029565b8254845260209093019260019283019201610ff8565b3461012e57602036600319011261012e576004355f52600260205260405f2061110c6109bb61109483611655565b926110a160018201611655565b936110ae60028301611655565b91600381015492600482015460018060a01b0360058401541660068401549060078501549261112860088701549561111a6110f3600a60ff60098c0154169a01611655565b996040519e8f9e8f9261016084526101608401906116f5565b9160208184039101526116f5565b8c810360408e0152906116f5565b9760608b015260808a015260a089015260c088015260e087015261010086015215156101208501528382036101408501526116f5565b3461012e5761116c366115eb565b90805f52600260205260405f2061118960ff60098301541661176e565b6003810154421015611530575f8281526003602090815260408083203384529091529020600101546001600160a01b03166114f657600681015480159081156114e8575b50156114b3576111dc33611800565b156114605760405160c08101908082106001600160401b0383111761059557600591604052838152602081013381526112996040830142815260608401905f825260808501935f855260a08601998a52885f52600360205260405f2060018060a01b0333165f5260205260405f209551865560018060a01b03905116600186019060018060a01b03166bffffffffffffffffffffffff60a01b825416179055516002850155511515600384019060ff801983541691151516179055565b5160048201550192519283516001600160401b038111610595576112bd825461161d565b601f811161141b575b50602094601f82116001146113ba579481929394955f926113af575b50508160011b915f199060031b1c19161790555b815f52600460205260405f208054600160401b8110156105955761131f91600182018155611745565b81549060031b9033821b9160018060a01b03901b1916179055335f52600560205260405f2090815491600160401b8310156105955782611366916001600795018155611745565b81549060031b9085821b915f19901b19161790550161138581546117b0565b905533907f6baa8cbb60f90bae3971a931fea4cc1f3754c6461463d56148a3ca08fdb7a2155f80a3005b0151905085806112e2565b601f19821695835f52805f20915f5b888110611403575083600195969798106113eb575b505050811b0190556112f6565b01515f1960f88460031b161c191690558580806113de565b919260206001819286850151815501940192016113c9565b825f5260205f20601f830160051c81019160208410611456575b601f0160051c01905b81811061144b57506112c6565b5f815560010161143e565b9091508190611435565b60405162461bcd60e51b815260206004820152602560248201527f4d7573742068617665206120566f6c747a2070726f66696c6520746f2072656760448201526434b9ba32b960d91b6064820152608490fd5b60405162461bcd60e51b815260206004820152600d60248201526c115d995b9d081a5cc8199d5b1b609a1b6044820152606490fd5b9050600782015410846111cd565b60405162461bcd60e51b8152602060048201526012602482015271105b1c9958591e481c9959da5cdd195c995960721b6044820152606490fd5b60405162461bcd60e51b815260206004820152601960248201527f4576656e742068617320616c72656164792073746172746564000000000000006044820152606490fd5b90601f801991011681019081106001600160401b0382111761059557604052565b81601f8201121561012e578035906001600160401b03821161059557604051926115ca601f8401601f191660200185611575565b8284526020838301011161012e57815f926020809301838601378301015290565b90604060031983011261012e5760043591602435906001600160401b03821161012e5761161a91600401611596565b90565b90600182811c9216801561164b575b602083101461163757565b634e487b7160e01b5f52602260045260245ffd5b91607f169161162c565b9060405191825f8254926116688461161d565b80845293600181169081156116d3575060011461168f575b5061168d92500383611575565b565b90505f9291925260205f20905f915b8183106116b757505090602061168d928201015f611680565b602091935080600191548385890101520191019091849261169e565b90506020925061168d94915060ff191682840152151560051b8201015f611680565b805180835260209291819084018484015e5f828201840152601f01601f1916010190565b600435906001600160a01b038216820361012e57565b602435906001600160a01b038216820361012e57565b805482101561175a575f5260205f2001905f90565b634e487b7160e01b5f52603260045260245ffd5b1561177557565b60405162461bcd60e51b81526020600482015260136024820152724576656e74206973206e6f742061637469766560681b6044820152606490fd5b5f198114610b0c5760010190565b156117c557565b60405162461bcd60e51b81526020600482015260136024820152722737ba1032bb32b73a1037b933b0b734bd32b960691b6044820152606490fd5b6006546040516370a0823160e01b81526001600160a01b0392831660048201529160209183916024918391165afa5f9181611845575b5061184057505f90565b151590565b9091506020813d602011611871575b8161186160209383611575565b8101031261012e5751905f611836565b3d9150611854565b5f546001600160a01b0316330361188c57565b63118cdaa760e01b5f523360045260245ffdfea164736f6c634300081c000a",
  "linkReferences": {},
  "deployedLinkReferences": {},
  "immutableReferences": {},
  "inputSourceName": "project/contracts/VoltzEvent.sol",
  "buildInfoId": "solc-0_8_28-b8bc8e4682ed9514dd365450f95eb038992fb9f9"
}