{
  "_format": "hh3-artifact-1",
  "contractName": "VoltzProfile",
  "sourceName": "contracts/VoltzProfile.sol",
  "abi": [
    {
      "inputs": [],
      "stateMutability": "nonpayable",
      "type": "constructor"
    },
    {
      "inputs": [
        {
          "internalType": "address",
          "name": "sender",
          "type": "address"
        },
        {
          "internalType": "uint256",
          "name": "tokenId",
          "type": "uint256"
        },
        {
          "internalType": "address",
          "name": "owner",
          "type": "address"
        }
      ],
      "name": "ERC721IncorrectOwner",
      "type": "error"
    },
    {
      "inputs": [
        {
          "internalType": "address",
          "name": "operator",
          "type": "address"
        },
        {
          "internalType": "uint256",
          "name": "tokenId",
          "type": "uint256"
        }
      ],
      "name": "ERC721InsufficientApproval",
      "type": "error"
    },
    {
      "inputs": [
        {
          "internalType": "address",
          "name": "approver",
          "type": "address"
        }
      ],
      "name": "ERC721InvalidApprover",
      "type": "error"
    },
    {
      "inputs": [
        {
          "internalType": "address",
          "name": "operator",
          "type": "address"
        }
      ],
      "name": "ERC721InvalidOperator",
      "type": "error"
    },
    {
      "inputs": [
        {
          "internalType": "address",
          "name": "owner",
          "type": "address"
        }
      ],
      "name": "ERC721InvalidOwner",
      "type": "error"
    },
    {
      "inputs": [
        {
          "internalType": "address",
          "name": "receiver",
          "type": "address"
        }
      ],
      "name": "ERC721InvalidReceiver",
      "type": "error"
    },
    {
      "inputs": [
        {
          "internalType": "address",
          "name": "sender",
          "type": "address"
        }
      ],
      "name": "ERC721InvalidSender",
      "type": "error"
    },
    {
      "inputs": [
        {
          "internalType": "uint256",
          "name": "tokenId",
          "type": "uint256"
        }
      ],
      "name": "ERC721NonexistentToken",
      "type": "error"
    },
    {
      "inputs": [
        {
          "internalType": "address",
          "name": "owner",
          "type": "address"
        }
      ],
      "name": "OwnableInvalidOwner",
      "type": "error"
    },
    {
      "inputs": [
        {
          "internalType": "address",
          "name": "account",
          "type": "address"
        }
      ],
      "name": "OwnableUnauthorizedAccount",
      "type": "error"
    },
    {
      "anonymous": false,
      "inputs": [
        {
          "indexed": true,
          "internalType": "address",
          "name": "owner",
          "type": "address"
        },
        {
          "indexed": true,
          "internalType": "address",
          "name": "approved",
          "type": "address"
        },
        {
          "indexed": true,
          "internalType": "uint256",
          "name": "tokenId",
          "type": "uint256"
        }
      ],
      "name": "Approval",
      "type": "event"
    },
    {
      "anonymous": false,
      "inputs": [
        {
          "indexed": true,
          "internalType": "address",
          "name": "owner",
          "type": "address"
        },
        {
          "indexed": true,
          "internalType": "address",
          "name": "operator",
          "type": "address"
        },
        {
          "indexed": false,
          "internalType": "bool",
          "name": "approved",
          "type": "bool"
        }
      ],
      "name": "ApprovalForAll",
      "type": "event"
    },
    {
      "anonymous": false,
      "inputs": [
        {
          "indexed": false,
          "internalType": "uint256",
          "name": "_fromTokenId",
          "type": "uint256"
        },
        {
          "indexed": false,
          "internalType": "uint256",
          "name": "_toTokenId",
          "type": "uint256"
        }
      ],
      "name": "BatchMetadataUpdate",
      "type": "event"
    },
    {
      "anonymous": false,
      "inputs": [
        {
          "indexed": false,
          "internalType": "uint256",
          "name": "_tokenId",
          "type": "uint256"
        }
      ],
      "name": "MetadataUpdate",
      "type": "event"
    },
    {
      "anonymous": false,
      "inputs": [
        {
          "indexed": true,
          "internalType": "address",
          "name": "previousOwner",
          "type": "address"
        },
        {
          "indexed": true,
          "internalType": "address",
          "name": "newOwner",
          "type": "address"
        }
      ],
      "name": "OwnershipTransferred",
      "type": "event"
    },
    {
      "anonymous": false,
      "inputs": [
        {
          "indexed": true,
          "internalType": "address",
          "name": "owner",
          "type": "address"
        },
        {
          "indexed": true,
          "internalType": "uint256",
          "name": "tokenId",
          "type": "uint256"
        },
        {
          "indexed": false,
          "internalType": "string",
          "name": "profileType",
          "type": "string"
        }
      ],
      "name": "ProfileCreated",
      "type": "event"
    },
    {
      "anonymous": false,
      "inputs": [
        {
          "indexed": true,
          "internalType": "uint256",
          "name": "tokenId",
          "type": "uint256"
        }
      ],
      "name": "ProfileDeactivated",
      "type": "event"
    },
    {
      "anonymous": false,
      "inputs": [
        {
          "indexed": true,
          "internalType": "uint256",
          "name": "tokenId",
          "type": "uint256"
        },
        {
          "indexed": false,
          "internalType": "string",
          "name": "storageURI",
          "type": "string"
        }
      ],
      "name": "ProfileUpdated",
      "type": "event"
    },
    {
      "anonymous": false,
      "inputs": [
        {
          "indexed": true,
          "internalType": "address",
          "name": "from",
          "type": "address"
        },
        {
          "indexed": true,
          "internalType": "address",
          "name": "to",
          "type": "address"
        },
        {
          "indexed": true,
          "internalType": "uint256",
          "name": "tokenId",
          "type": "uint256"
        }
      ],
      "name": "Transfer",
      "type": "event"
    },
    {
      "inputs": [
        {
          "internalType": "address",
          "name": "",
          "type": "address"
        }
      ],
      "name": "addressToProfile",
      "outputs": [
        {
          "internalType": "uint256",
          "name": "",
          "type": "uint256"
        }
      ],
      "stateMutability": "view",
      "type": "function"
    },
    {
      "inputs": [
        {
          "internalType": "address",
          "name": "to",
          "type": "address"
        },
        {
          "internalType": "uint256",
          "name": "tokenId",
          "type": "uint256"
        }
      ],
      "name": "approve",
      "outputs": [],
      "stateMutability": "nonpayable",
      "type": "function"
    },
    {
      "inputs": [
        {
          "internalType": "address",
          "name": "owner",
          "type": "address"
        }
      ],
      "name": "balanceOf",
      "outputs": [
        {
          "internalType": "uint256",
          "name": "",
          "type": "uint256"
        }
      ],
      "stateMutability": "view",
      "type": "function"
    },
    {
      "inputs": [
        {
          "internalType": "address",
          "name": "to",
          "type": "address"
        },
        {
          "internalType": "string",
          "name": "profileType",
          "type": "string"
        },
        {
          "internalType": "string",
          "name": "storageURI",
          "type": "string"
        }
      ],
      "name": "createProfile",
      "outputs": [
        {
          "internalType": "uint256",
          "name": "",
          "type": "uint256"
        }
      ],
      "stateMutability": "nonpayable",
      "type": "function"
    },
    {
      "inputs": [
        {
          "internalType": "uint256",
          "name": "tokenId",
          "type": "uint256"
        }
      ],
      "name": "deactivateProfile",
      "outputs": [],
      "stateMutability": "nonpayable",
      "type": "function"
    },
    {
      "inputs": [
        {
          "internalType": "uint256",
          "name": "tokenId",
          "type": "uint256"
        }
      ],
      "name": "getApproved",
      "outputs": [
        {
          "internalType": "address",
          "name": "",
          "type": "address"
        }
      ],
      "stateMutability": "view",
      "type": "function"
    },
    {
      "inputs": [
        {
          "internalType": "address",
          "name": "user",
          "type": "address"
        }
      ],
      "name": "getProfileByAddress",
      "outputs": [
        {
          "components": [
            {
              "internalType": "string",
              "name": "profileType",
              "type": "string"
            },
            {
              "internalType": "uint256",
              "name": "createdAt",
              "type": "uint256"
            },
            {
              "internalType": "uint256",
              "name": "updatedAt",
              "type": "uint256"
            },
            {
              "internalType": "bool",
              "name": "isActive",
              "type": "bool"
            },
            {
              "internalType": "string",
              "name": "storageURI",
              "type": "string"
            }
          ],
          "internalType": "struct VoltzProfile.ProfileData",
          "name": "",
          "type": "tuple"
        }
      ],
      "stateMutability": "view",
      "type": "function"
    },
    {
      "inputs": [
        {
          "internalType": "address",
          "name": "user",
          "type": "address"
        }
      ],
      "name": "hasProfile",
      "outputs": [
        {
          "internalType": "bool",
          "name": "",
          "type": "bool"
        }
      ],
      "stateMutability": "view",
      "type": "function"
    },
    {
      "inputs": [
        {
          "internalType": "address",
          "name": "owner",
          "type": "address"
        },
        {
          "internalType": "address",
          "name": "operator",
          "type": "address"
        }
      ],
      "name": "isApprovedForAll",
      "outputs": [
        {
          "internalType": "bool",
          "name": "",
          "type": "bool"
        }
      ],
      "stateMutability": "view",
      "type": "function"
    },
    {
      "inputs": [],
      "name": "name",
      "outputs": [
        {
          "internalType": "string",
          "name": "",
          "type": "string"
        }
      ],
      "stateMutability": "view",
      "type": "function"
    },
    {
      "inputs": [],
      "name": "owner",
      "outputs": [
        {
          "internalType": "address",
          "name": "",
          "type": "address"
        }
      ],
      "stateMutability": "view",
      "type": "function"
    },
    {
      "inputs": [
        {
          "internalType": "uint256",
          "name": "tokenId",
          "type": "uint256"
        }
      ],
      "name": "ownerOf",
      "outputs": [
        {
          "internalType": "address",
          "name": "",
          "type": "address"
        }
      ],
      "stateMutability": "view",
      "type": "function"
    },
    {
      "inputs": [
        {
          "internalType": "uint256",
          "name": "",
          "type": "uint256"
        }
      ],
      "name": "profileToAddress",
      "outputs": [
        {
          "internalType": "address",
          "name": "",
          "type": "address"
        }
      ],
      "stateMutability": "view",
      "type": "function"
    },
    {
      "inputs": [
        {
          "internalType": "uint256",
          "name": "",
          "type": "uint256"
        }
      ],
      "name": "profiles",
      "outputs": [
        {
          "internalType": "string",
          "name": "profileType",
          "type": "string"
        },
        {
          "internalType": "uint256",
          "name": "createdAt",
          "type": "uint256"
        },
        {
          "internalType": "uint256",
          "name": "updatedAt",
          "type": "uint256"
        },
        {
          "internalType": "bool",
          "name": "isActive",
          "type": "bool"
        },
        {
          "internalType": "string",
          "name": "storageURI",
          "type": "string"
        }
      ],
      "stateMutability": "view",
      "type": "function"
    },
    {
      "inputs": [],
      "name": "renounceOwnership",
      "outputs": [],
      "stateMutability": "nonpayable",
      "type": "function"
    },
    {
      "inputs": [
        {
          "internalType": "address",
          "name": "from",
          "type": "address"
        },
        {
          "internalType": "address",
          "name": "to",
          "type": "address"
        },
        {
          "internalType": "uint256",
          "name": "tokenId",
          "type": "uint256"
        }
      ],
      "name": "safeTransferFrom",
      "outputs": [],
      "stateMutability": "nonpayable",
      "type": "function"
    },
    {
      "inputs": [
        {
          "internalType": "address",
          "name": "from",
          "type": "address"
        },
        {
          "internalType": "address",
          "name": "to",
          "type": "address"
        },
        {
          "internalType": "uint256",
          "name": "tokenId",
          "type": "uint256"
        },
        {
          "internalType": "bytes",
          "name": "data",
          "type": "bytes"
        }
      ],
      "name": "safeTransferFrom",
      "outputs": [],
      "stateMutability": "nonpayable",
      "type": "function"
    },
    {
      "inputs": [
        {
          "internalType": "address",
          "name": "operator",
          "type": "address"
        },
        {
          "internalType": "bool",
          "name": "approved",
          "type": "bool"
        }
      ],
      "name": "setApprovalForAll",
      "outputs": [],
      "stateMutability": "nonpayable",
      "type": "function"
    },
    {
      "inputs": [
        {
          "internalType": "bytes4",
          "name": "interfaceId",
          "type": "bytes4"
        }
      ],
      "name": "supportsInterface",
      "outputs": [
        {
          "internalType": "bool",
          "name": "",
          "type": "bool"
        }
      ],
      "stateMutability": "view",
      "type": "function"
    },
    {
      "inputs": [],
      "name": "symbol",
      "outputs": [
        {
          "internalType": "string",
          "name": "",
          "type": "string"
        }
      ],
      "stateMutability": "view",
      "type": "function"
    },
    {
      "inputs": [
        {
          "internalType": "uint256",
          "name": "tokenId",
          "type": "uint256"
        }
      ],
      "name": "tokenURI",
      "outputs": [
        {
          "internalType": "string",
          "name": "",
          "type": "string"
        }
      ],
      "stateMutability": "view",
      "type": "function"
    },
    {
      "inputs": [
        {
          "internalType": "address",
          "name": "from",
          "type": "address"
        },
        {
          "internalType": "address",
          "name": "to",
          "type": "address"
        },
        {
          "internalType": "uint256",
          "name": "tokenId",
          "type": "uint256"
        }
      ],
      "name": "transferFrom",
      "outputs": [],
      "stateMutability": "nonpayable",
      "type": "function"
    },
    {
      "inputs": [
        {
          "internalType": "address",
          "name": "newOwner",
          "type": "address"
        }
      ],
      "name": "transferOwnership",
      "outputs": [],
      "stateMutability": "nonpayable",
      "type": "function"
    },
    {
      "inputs": [
        {
          "internalType": "uint256",
          "name": "tokenId",
          "type": "uint256"
        },
        {
          "internalType": "string",
          "name": "storageURI",
          "type": "string"
        }
      ],
      "name": "updateProfile",
      "outputs": [],
      "stateMutability": "nonpayable",
      "type": "function"
    }
  ],
  "bytecode": "0x60806040523461037557604080519081016001600160401b0381118282101761028b576040908152600d82526c566f6c747a2050726f66696c6560981b602083015280519081016001600160401b0381118282101761028b5760405260058152642b27a62a2d60d91b602082015281516001600160401b03811161028b575f54600181811c9116801561036b575b602082101461026d57601f8111610309575b50602092601f82116001146102aa57928192935f9261029f575b50508160011b915f199060031b1c1916175f555b80516001600160401b03811161028b57600154600181811c91168015610281575b602082101461026d57601f811161020a575b50602091601f82116001146101aa579181925f9261019f575b50508160011b915f199060031b1c1916176001555b331561018c5760078054336001600160a01b03198216811790925560405191906001600160a01b03167f8be0079c531659141344cd1fd0a4f28419497f9722a3daafe3b4186f6b6457e05f80a36001600855611b1b908161037a8239f35b631e4fbdf760e01b5f525f60045260245ffd5b015190505f80610119565b601f1982169260015f52805f20915f5b8581106101f2575083600195106101da575b505050811b0160015561012e565b01515f1960f88460031b161c191690555f80806101cc565b919260206001819286850151815501940192016101ba565b60015f527fb10e2d527612073b26eecdfd717e6a320cf44b4afac2b0732d9fcbe2b7fa0cf6601f830160051c81019160208410610263575b601f0160051c01905b8181106102585750610100565b5f815560010161024b565b9091508190610242565b634e487b7160e01b5f52602260045260245ffd5b90607f16906100ee565b634e487b7160e01b5f52604160045260245ffd5b015190505f806100b9565b601f198216935f8052805f20915f5b8681106102f157508360019596106102d9575b505050811b015f556100cd565b01515f1960f88460031b161c191690555f80806102cc565b919260206001819286850151815501940192016102b9565b5f80527f290decd9548b62a8d60345a988386fc84ba6bc95484008f6362f93160ef3e563601f830160051c81019160208410610361575b601f0160051c01905b818110610356575061009f565b5f8155600101610349565b9091508190610340565b90607f169061008d565b5f80fdfe6080806040526004361015610012575f80fd5b5f3560e01c90816301ffc9a7146113005750806306fdde031461125e578063081812fc14611222578063095ea7b3146111385780630e7b29bf1461110057806323b872dd146110e957806342842e0e146110ba5780634cd6959c14610f6757806360dd6812146108e55780636352211e146108b557806370a0823114610864578063715018a61461080957806389c7e0a0146105cc5780638da5cb5b146105a457806395d89b41146104da578063a22cb46514610436578063a787c80b146103cc578063af34e9eb1461039a578063b88d4fde1461032c578063c36fe3d6146102a9578063c87b56dd14610272578063cb3044f514610205578063e985e9c5146101ae5763f2fde38b14610124575f80fd5b346101aa5760203660031901126101aa5761013d6113a9565b610145611981565b6001600160a01b0316801561019757600780546001600160a01b0319811683179091556001600160a01b03167f8be0079c531659141344cd1fd0a4f28419497f9722a3daafe3b4186f6b6457e05f80a3005b631e4fbdf760e01b5f525f60045260245ffd5b5f80fd5b346101aa5760403660031901126101aa576101c76113a9565b6101cf6113bf565b9060018060a01b03165f52600560205260405f209060018060a01b03165f52602052602060ff60405f2054166040519015158152f35b346101aa5760203660031901126101aa57600435610235610225826117e6565b6001600160a01b031633146117a6565b805f52600b602052600360405f200160ff1981541690557ffaccdb7b397916a1b9bb4922bfad1945779c79029c5605adbc7becae0d50689e5f80a2005b346101aa5760203660031901126101aa576102a5610291600435611ade565b604051918291602083526020830190611385565b0390f35b346101aa5760203660031901126101aa576004355f52600b60205261030d60405f206102a56102d7826114f5565b916001810154906002810154906102f8600460ff60038401541692016114f5565b9160405196879660a0885260a0880190611385565b9360208701526040860152151560608501528382036080850152611385565b346101aa5760803660031901126101aa576103456113a9565b61034d6113bf565b906044356064359267ffffffffffffffff84116101aa57366023850112156101aa57610386610398943690602481600401359101611469565b92610392838383611595565b336119a8565b005b346101aa5760203660031901126101aa576004355f52600a602052602060018060a01b0360405f205416604051908152f35b346101aa5760203660031901126101aa576001600160a01b036103ed6113a9565b16805f52600960205260405f2054151580610410575b6020906040519015158152f35b505f52600960205260405f20545f52600b602052602060ff600360405f20015416610403565b346101aa5760403660031901126101aa5761044f6113a9565b60243590811515908183036101aa576001600160a01b03169182156104c75761049990335f52600560205260405f20845f5260205260405f209060ff801983541691151516179055565b6040519081527f17307eab39ab6107e8899845ad3d59bd9653f200f220920489ca2b5937696c3160203392a3005b82630b61174360e31b5f5260045260245ffd5b346101aa575f3660031901126101aa576040515f6001546104fa816114bd565b80845290600181169081156105805750600114610522575b6102a5836102918185038261142b565b60015f9081527fb10e2d527612073b26eecdfd717e6a320cf44b4afac2b0732d9fcbe2b7fa0cf6939250905b80821061056657509091508101602001610291610512565b91926001816020925483858801015201910190929161054e565b60ff191660208086019190915291151560051b840190910191506102919050610512565b346101aa575f3660031901126101aa576007546040516001600160a01b039091168152602090f35b346101aa5760403660031901126101aa5760043560243567ffffffffffffffff81116101aa5761060090369060040161149f565b9061060d610225826117e6565b805f52600b60205260ff600360405f20015416156107cb5761062f828261181a565b805f52600b602052600460405f20019180519267ffffffffffffffff84116107b75761065b81546114bd565b601f8111610772575b50602093601f81116001146106ec5790816106dc93927ff96ba9de8f35fc1b2f70be308b08d6f4474871473f0e193bd910b20f565ff0b195965f916106e1575b508160011b915f199060031b1c19161790555b835f52600b60205242600260405f200155604051918291602083526020830190611385565b0390a2005b9050830151876106a4565b601f198116825f52855f20905f5b81811061075a5750916001917ff96ba9de8f35fc1b2f70be308b08d6f4474871473f0e193bd910b20f565ff0b19697826106dc97969510610742575b5050811b0190556106b7565b8501515f1960f88460031b161c191690558780610736565b858801518355602097880197600190930192016106fa565b815f5260205f20601f860160051c810191602087106107ad575b601f0160051c01905b8181106107a25750610664565b5f8155600101610795565b909150819061078c565b634e487b7160e01b5f52604160045260245ffd5b60405162461bcd60e51b8152602060048201526016602482015275141c9bd99a5b19481a5cc819195858dd1a5d985d195960521b6044820152606490fd5b346101aa575f3660031901126101aa57610821611981565b600780546001600160a01b031981169091555f906001600160a01b03167f8be0079c531659141344cd1fd0a4f28419497f9722a3daafe3b4186f6b6457e08280a3005b346101aa5760203660031901126101aa576001600160a01b036108856113a9565b1680156108a2575f526003602052602060405f2054604051908152f35b6322718ad960e21b5f525f60045260245ffd5b346101aa5760203660031901126101aa5760206108d36004356117e6565b6040516001600160a01b039091168152f35b346101aa5760603660031901126101aa576108fe6113a9565b60243567ffffffffffffffff81116101aa5761091e90369060040161149f565b60443567ffffffffffffffff81116101aa5761093e90369060040161149f565b6001600160a01b0383165f81815260096020526040902054610f1257600854916001830160085560209460405190610976878361142b565b5f82528315610eff575f8581526002885260409020546001600160a01b0316158015610ef8575b15610e9a575f8581526002885260409020546001600160a01b03168015159081610e69575b855f526003895260405f2060018154019055865f526002895260405f20866001600160601b0360a01b8254161790558686827fddf252ad1be2c89b69c2b068fc378daa952ba7f163c4a11628f55a4df523b3ef5f80a450610e56573b610d3e575b50610a2e818461181a565b604051610a3a8161140f565b8481528581014281526040820142815260608301916001835260808401948552865f52600b895260405f20935180519067ffffffffffffffff82116107b757610a8386546114bd565b601f8111610cfb575b508a90601f8311600114610c8c579180600497969492610ae696945f92610c81575b50508160011b915f199060031b1c19161785555b516001850155516002840155511515600383019060ff801983541691151516179055565b01905180519067ffffffffffffffff82116107b757610b0583546114bd565b601f8111610c3e575b508690601f8311600114610bb4579282610b9e938798937f02ed4ee0412e67bbc9ed1687f3ad6bb7134d359d45994f3bf5302e91d81cf61f965f92610ba9575b50508160011b915f199060031b1c19161790555b835f52600987528460405f2055845f52600a875260405f20846001600160601b0360a01b82541617905560405191829188835288830190611385565b0390a3604051908152f35b015190508a80610b4e565b90601f19831691845f52885f20925f5b8a828210610c28575050938798937f02ed4ee0412e67bbc9ed1687f3ad6bb7134d359d45994f3bf5302e91d81cf61f969360019383610b9e9810610c10575b505050811b019055610b62565b01515f1960f88460031b161c191690558a8080610c03565b6001859682939686015181550195019301610bc4565b835f52875f20601f840160051c810191898510610c77575b601f0160051c01905b818110610c6c5750610b0e565b5f8155600101610c5f565b9091508190610c56565b015190508d80610aae565b5f8781528c8120929190601f198516908e5b828210610ce3575050926001928592610ae6989660049b9a989610610ccb575b505050811b018555610ac2565b01515f1960f88460031b161c191690558d8080610cbe565b80600186978294978701518155019601940190610c9e565b865f528b5f20601f840160051c8101918d8510610d34575b601f0160051c01905b818110610d295750610a8c565b5f8155600101610d1c565b9091508190610d13565b85610d7c91604097969594975180938192630a85bd0160e11b83523360048401525f6024840152876044840152608060648401526084830190611385565b03815f8a5af15f9181610e16575b50610ddf5785853d15610dd7573d90610da28261144d565b91610db0604051938461142b565b82523d5f8284013e5b81519182610dd45783633250574960e11b5f5260045260245ffd5b01fd5b606090610db9565b939492939192916001600160e01b03191663757a42ff60e11b01610e035785610a23565b50633250574960e11b5f5260045260245ffd5b9091508581813d8311610e4f575b610e2e818361142b565b810103126101aa57516001600160e01b0319811681036101aa579087610d8a565b503d610e24565b6339e3563760e11b5f525f60045260245ffd5b5f8781526004602052604080822080546001600160a01b031916905582825260038b52902080545f190190556109c2565b60405162461bcd60e51b815260048101889052603060248201527f50726f66696c65732061726520736f756c626f756e6420616e642063616e6e6f60448201526f1d081899481d1c985b9cd9995c9c995960821b6064820152608490fd5b505f61099d565b633250574960e11b5f525f60045260245ffd5b60405162461bcd60e51b815260206004820152602760248201527f50726f66696c6520616c72656164792065786973747320666f722074686973206044820152666164647265737360c81b6064820152608490fd5b346101aa5760203660031901126101aa57610f806113a9565b60606080604051610f908161140f565b8281525f60208201525f60408201525f83820152015260018060a01b03165f52600960205260405f2054801561106b575f52600b60205261104460405f206102a560405191610fde8361140f565b610fe7816114f5565b83526001810154906020840191825260028101549060408501918252611020600460ff60038401541692606088019315158452016114f5565b9160808601928352604051968796602088525160a0602089015260c0880190611385565b93516040870152516060860152511515608085015251838203601f190160a0850152611385565b60405162461bcd60e51b815260206004820152602160248201527f4e6f2070726f66696c6520666f756e6420666f722074686973206164647265736044820152607360f81b6064820152608490fd5b346101aa576103986110cb366113d5565b90604051926110db60208561142b565b5f8452610392838383611595565b346101aa576103986110fa366113d5565b91611595565b346101aa5760203660031901126101aa576001600160a01b036111216113a9565b165f526009602052602060405f2054604051908152f35b346101aa5760403660031901126101aa576111516113a9565b60243561115d816117e6565b3315158061120f575b806111e2575b6111cf5781906001600160a01b0384811691167f8c5be1e5ebec7d5bd14f71427d1e84f3dd0314c0f7b2291e5b200ac8c7c3b9255f80a45f90815260046020526040902080546001600160a01b0319166001600160a01b03909216919091179055005b63a9fbf51f60e01b5f523360045260245ffd5b506001600160a01b0381165f90815260056020908152604080832033845290915290205460ff161561116c565b506001600160a01b038116331415611166565b346101aa5760203660031901126101aa5760043561123f816117e6565b505f526004602052602060018060a01b0360405f205416604051908152f35b346101aa575f3660031901126101aa576040515f5f5461127d816114bd565b808452906001811690811561058057506001146112a4576102a5836102918185038261142b565b5f8080527f290decd9548b62a8d60345a988386fc84ba6bc95484008f6362f93160ef3e563939250905b8082106112e657509091508101602001610291610512565b9192600181602092548385880101520191019092916112ce565b346101aa5760203660031901126101aa576004359063ffffffff60e01b82168092036101aa57602091632483248360e11b8114908115611342575b5015158152f35b6380ac58cd60e01b811491508115611374575b8115611363575b508361133b565b6301ffc9a760e01b1490508361135c565b635b5e139f60e01b81149150611355565b805180835260209291819084018484015e5f828201840152601f01601f1916010190565b600435906001600160a01b03821682036101aa57565b602435906001600160a01b03821682036101aa57565b60609060031901126101aa576004356001600160a01b03811681036101aa57906024356001600160a01b03811681036101aa579060443590565b60a0810190811067ffffffffffffffff8211176107b757604052565b90601f8019910116810190811067ffffffffffffffff8211176107b757604052565b67ffffffffffffffff81116107b757601f01601f191660200190565b9291926114758261144d565b91611483604051938461142b565b8294818452818301116101aa578281602093845f960137010152565b9080601f830112156101aa578160206114ba93359101611469565b90565b90600182811c921680156114eb575b60208310146114d757565b634e487b7160e01b5f52602260045260245ffd5b91607f16916114cc565b9060405191825f825492611508846114bd565b8084529360018116908115611573575060011461152f575b5061152d9250038361142b565b565b90505f9291925260205f20905f915b81831061155757505090602061152d928201015f611520565b602091935080600191548385890101520191019091849261153e565b90506020925061152d94915060ff191682840152151560051b8201015f611520565b6001600160a01b0390911691908215610eff575f828152600260205260409020546001600160a01b031615801561179f575b15611741575f828152600260205260409020546001600160a01b0316928290331515806116ac575b5084611679575b805f52600360205260405f2060018154019055815f52600260205260405f20816001600160601b0360a01b825416179055847fddf252ad1be2c89b69c2b068fc378daa952ba7f163c4a11628f55a4df523b3ef5f80a46001600160a01b031680830361166157505050565b6364283d7b60e01b5f5260045260245260445260645ffd5b5f82815260046020526040902080546001600160a01b0319169055845f52600360205260405f205f1981540190556115f6565b909150806116f0575b156116c25782905f6115ef565b82846116da57637e27328960e01b5f5260045260245ffd5b63177e802f60e01b5f523360045260245260445ffd5b50338414801561171f575b806116b557505f838152600460205260409020546001600160a01b031633146116b5565b505f84815260056020908152604080832033845290915290205460ff166116fb565b60405162461bcd60e51b815260206004820152603060248201527f50726f66696c65732061726520736f756c626f756e6420616e642063616e6e6f60448201526f1d081899481d1c985b9cd9995c9c995960821b6064820152608490fd5b505f6115c7565b156117ad57565b60405162461bcd60e51b81526020600482015260116024820152702737ba10383937b334b6329037bbb732b960791b6044820152606490fd5b5f818152600260205260409020546001600160a01b0316908115611808575090565b637e27328960e01b5f5260045260245ffd5b919091805f52600660205260405f20835167ffffffffffffffff81116107b75761184482546114bd565b601f811161193c575b506020601f82116001146118b457908060209493927ff8e1a15aba9398e019f0b49df1a4fde98ee17ae345cb5f6b5e2c27f5033e8ce796975f926118a9575b50508160011b915f199060031b1c19161790555b604051908152a1565b015190505f8061188c565b601f19821695835f52815f20965f5b818110611924575096600192849260209796957ff8e1a15aba9398e019f0b49df1a4fde98ee17ae345cb5f6b5e2c27f5033e8ce7999a1061190c575b505050811b0190556118a0565b01515f1960f88460031b161c191690555f80806118ff565b838301518955600190980197602093840193016118c3565b825f5260205f20601f830160051c81019160208410611977575b601f0160051c01905b81811061196c575061184d565b5f815560010161195f565b9091508190611956565b6007546001600160a01b0316330361199557565b63118cdaa760e01b5f523360045260245ffd5b823b6119b6575b5050505050565b604051630a85bd0160e11b81526001600160a01b039182166004820152918116602483015260448201939093526080606482015291169160209082908190611a02906084830190611385565b03815f865af15f9181611a99575b50611a6557503d15611a5e573d611a268161144d565b90611a34604051928361142b565b81523d5f602083013e5b80519081611a595782633250574960e11b5f5260045260245ffd5b602001fd5b6060611a3e565b6001600160e01b03191663757a42ff60e11b01611a8757505f808080806119af565b633250574960e11b5f5260045260245ffd5b9091506020813d602011611ad6575b81611ab56020938361142b565b810103126101aa57516001600160e01b0319811681036101aa57905f611a10565b3d9150611aa8565b611ae7816117e6565b505f526006602052611afb60405f206114f5565b5f604051611b0a60208261142b565b529056fea164736f6c634300081c000a",
  "linkReferences": {},
  "deployedLinkReferences": {},
  "immutableReferences": {},
  "inputSourceName": "project/contracts/VoltzProfile.sol",
  "buildInfoId": "solc-0_8_28-509b3fb6bd956565faf55b8b2cf42e3768dcf265"
}