{
  "_format": "hh3-artifact-1",
  "contractName": "VoltzReputation",
  "sourceName": "contracts/VoltzReputation.sol",
  "abi": [
    {
      "inputs": [],
      "stateMutability": "nonpayable",
      "type": "constructor"
    },
    {
      "inputs": [],
      "name": "AccessControlBadConfirmation",
      "type": "error"
    },
    {
      "inputs": [
        {
          "internalType": "address",
          "name": "account",
          "type": "address"
        },
        {
          "internalType": "bytes32",
          "name": "neededRole",
          "type": "bytes32"
        }
      ],
      "name": "AccessControlUnauthorizedAccount",
      "type": "error"
    },
    {
      "anonymous": false,
      "inputs": [
        {
          "indexed": true,
          "internalType": "bytes32",
          "name": "role",
          "type": "bytes32"
        },
        {
          "indexed": true,
          "internalType": "bytes32",
          "name": "previousAdminRole",
          "type": "bytes32"
        },
        {
          "indexed": true,
          "internalType": "bytes32",
          "name": "newAdminRole",
          "type": "bytes32"
        }
      ],
      "name": "RoleAdminChanged",
      "type": "event"
    },
    {
      "anonymous": false,
      "inputs": [
        {
          "indexed": true,
          "internalType": "bytes32",
          "name": "role",
          "type": "bytes32"
        },
        {
          "indexed": true,
          "internalType": "address",
          "name": "account",
          "type": "address"
        },
        {
          "indexed": true,
          "internalType": "address",
          "name": "sender",
          "type": "address"
        }
      ],
      "name": "RoleGranted",
      "type": "event"
    },
    {
      "anonymous": false,
      "inputs": [
        {
          "indexed": true,
          "internalType": "bytes32",
          "name": "role",
          "type": "bytes32"
        },
        {
          "indexed": true,
          "internalType": "address",
          "name": "account",
          "type": "address"
        },
        {
          "indexed": true,
          "internalType": "address",
          "name": "sender",
          "type": "address"
        }
      ],
      "name": "RoleRevoked",
      "type": "event"
    },
    {
      "anonymous": false,
      "inputs": [
        {
          "indexed": true,
          "internalType": "address",
          "name": "user",
          "type": "address"
        },
        {
          "indexed": false,
          "internalType": "uint256",
          "name": "newTotal",
          "type": "uint256"
        },
        {
          "indexed": false,
          "internalType": "string",
          "name": "category",
          "type": "string"
        },
        {
          "indexed": false,
          "internalType": "uint256",
          "name": "points",
          "type": "uint256"
        }
      ],
      "name": "ScoreUpdated",
      "type": "event"
    },
    {
      "anonymous": false,
      "inputs": [
        {
          "indexed": true,
          "internalType": "address",
          "name": "user",
          "type": "address"
        },
        {
          "indexed": false,
          "internalType": "string",
          "name": "tier",
          "type": "string"
        },
        {
          "indexed": false,
          "internalType": "uint256",
          "name": "score",
          "type": "uint256"
        }
      ],
      "name": "TierAchieved",
      "type": "event"
    },
    {
      "inputs": [],
      "name": "ADMIN_ROLE",
      "outputs": [
        {
          "internalType": "bytes32",
          "name": "",
          "type": "bytes32"
        }
      ],
      "stateMutability": "view",
      "type": "function"
    },
    {
      "inputs": [],
      "name": "BRONZE_THRESHOLD",
      "outputs": [
        {
          "internalType": "uint256",
          "name": "",
          "type": "uint256"
        }
      ],
      "stateMutability": "view",
      "type": "function"
    },
    {
      "inputs": [],
      "name": "DEFAULT_ADMIN_ROLE",
      "outputs": [
        {
          "internalType": "bytes32",
          "name": "",
          "type": "bytes32"
        }
      ],
      "stateMutability": "view",
      "type": "function"
    },
    {
      "inputs": [],
      "name": "GOLD_THRESHOLD",
      "outputs": [
        {
          "internalType": "uint256",
          "name": "",
          "type": "uint256"
        }
      ],
      "stateMutability": "view",
      "type": "function"
    },
    {
      "inputs": [],
      "name": "PLATINUM_THRESHOLD",
      "outputs": [
        {
          "internalType": "uint256",
          "name": "",
          "type": "uint256"
        }
      ],
      "stateMutability": "view",
      "type": "function"
    },
    {
      "inputs": [],
      "name": "SILVER_THRESHOLD",
      "outputs": [
        {
          "internalType": "uint256",
          "name": "",
          "type": "uint256"
        }
      ],
      "stateMutability": "view",
      "type": "function"
    },
    {
      "inputs": [],
      "name": "VERIFIER_ROLE",
      "outputs": [
        {
          "internalType": "bytes32",
          "name": "",
          "type": "bytes32"
        }
      ],
      "stateMutability": "view",
      "type": "function"
    },
    {
      "inputs": [
        {
          "internalType": "address",
          "name": "user",
          "type": "address"
        },
        {
          "internalType": "uint256",
          "name": "points",
          "type": "uint256"
        },
        {
          "internalType": "string",
          "name": "category",
          "type": "string"
        },
        {
          "internalType": "string",
          "name": "proofURI",
          "type": "string"
        }
      ],
      "name": "addScore",
      "outputs": [],
      "stateMutability": "nonpayable",
      "type": "function"
    },
    {
      "inputs": [
        {
          "internalType": "address[]",
          "name": "users",
          "type": "address[]"
        },
        {
          "internalType": "uint256[]",
          "name": "points",
          "type": "uint256[]"
        },
        {
          "internalType": "string[]",
          "name": "categories",
          "type": "string[]"
        },
        {
          "internalType": "string[]",
          "name": "proofURIs",
          "type": "string[]"
        }
      ],
      "name": "batchAddScores",
      "outputs": [],
      "stateMutability": "nonpayable",
      "type": "function"
    },
    {
      "inputs": [],
      "name": "credentialWeight",
      "outputs": [
        {
          "internalType": "uint256",
          "name": "",
          "type": "uint256"
        }
      ],
      "stateMutability": "view",
      "type": "function"
    },
    {
      "inputs": [],
      "name": "eventAttendanceWeight",
      "outputs": [
        {
          "internalType": "uint256",
          "name": "",
          "type": "uint256"
        }
      ],
      "stateMutability": "view",
      "type": "function"
    },
    {
      "inputs": [],
      "name": "feedbackWeight",
      "outputs": [
        {
          "internalType": "uint256",
          "name": "",
          "type": "uint256"
        }
      ],
      "stateMutability": "view",
      "type": "function"
    },
    {
      "inputs": [
        {
          "internalType": "bytes32",
          "name": "role",
          "type": "bytes32"
        }
      ],
      "name": "getRoleAdmin",
      "outputs": [
        {
          "internalType": "bytes32",
          "name": "",
          "type": "bytes32"
        }
      ],
      "stateMutability": "view",
      "type": "function"
    },
    {
      "inputs": [
        {
          "internalType": "address",
          "name": "user",
          "type": "address"
        }
      ],
      "name": "getScore",
      "outputs": [
        {
          "components": [
            {
              "internalType": "uint256",
              "name": "totalScore",
              "type": "uint256"
            },
            {
              "internalType": "uint256",
              "name": "eventAttendance",
              "type": "uint256"
            },
            {
              "internalType": "uint256",
              "name": "qualityConnections",
              "type": "uint256"
            },
            {
              "internalType": "uint256",
              "name": "workshopParticipation",
              "type": "uint256"
            },
            {
              "internalType": "uint256",
              "name": "credentialVerifications",
              "type": "uint256"
            },
            {
              "internalType": "uint256",
              "name": "communityFeedback",
              "type": "uint256"
            },
            {
              "internalType": "uint256",
              "name": "lastUpdated",
              "type": "uint256"
            }
          ],
          "internalType": "struct VoltzReputation.ReputationScore",
          "name": "",
          "type": "tuple"
        }
      ],
      "stateMutability": "view",
      "type": "function"
    },
    {
      "inputs": [
        {
          "internalType": "address",
          "name": "user",
          "type": "address"
        }
      ],
      "name": "getScoreHistory",
      "outputs": [
        {
          "components": [
            {
              "internalType": "address",
              "name": "user",
              "type": "address"
            },
            {
              "internalType": "uint256",
              "name": "points",
              "type": "uint256"
            },
            {
              "internalType": "string",
              "name": "category",
              "type": "string"
            },
            {
              "internalType": "string",
              "name": "proofURI",
              "type": "string"
            },
            {
              "internalType": "uint256",
              "name": "timestamp",
              "type": "uint256"
            }
          ],
          "internalType": "struct VoltzReputation.ScoreUpdate[]",
          "name": "",
          "type": "tuple[]"
        }
      ],
      "stateMutability": "view",
      "type": "function"
    },
    {
      "inputs": [
        {
          "internalType": "address",
          "name": "user",
          "type": "address"
        }
      ],
      "name": "getTier",
      "outputs": [
        {
          "internalType": "string",
          "name": "",
          "type": "string"
        }
      ],
      "stateMutability": "view",
      "type": "function"
    },
    {
      "inputs": [
        {
          "internalType": "bytes32",
          "name": "role",
          "type": "bytes32"
        },
        {
          "internalType": "address",
          "name": "account",
          "type": "address"
        }
      ],
      "name": "grantRole",
      "outputs": [],
      "stateMutability": "nonpayable",
      "type": "function"
    },
    {
      "inputs": [
        {
          "internalType": "bytes32",
          "name": "role",
          "type": "bytes32"
        },
        {
          "internalType": "address",
          "name": "account",
          "type": "address"
        }
      ],
      "name": "hasRole",
      "outputs": [
        {
          "internalType": "bool",
          "name": "",
          "type": "bool"
        }
      ],
      "stateMutability": "view",
      "type": "function"
    },
    {
      "inputs": [],
      "name": "qualityConnectionWeight",
      "outputs": [
        {
          "internalType": "uint256",
          "name": "",
          "type": "uint256"
        }
      ],
      "stateMutability": "view",
      "type": "function"
    },
    {
      "inputs": [
        {
          "internalType": "bytes32",
          "name": "role",
          "type": "bytes32"
        },
        {
          "internalType": "address",
          "name": "callerConfirmation",
          "type": "address"
        }
      ],
      "name": "renounceRole",
      "outputs": [],
      "stateMutability": "nonpayable",
      "type": "function"
    },
    {
      "inputs": [
        {
          "internalType": "bytes32",
          "name": "role",
          "type": "bytes32"
        },
        {
          "internalType": "address",
          "name": "account",
          "type": "address"
        }
      ],
      "name": "revokeRole",
      "outputs": [],
      "stateMutability": "nonpayable",
      "type": "function"
    },
    {
      "inputs": [
        {
          "internalType": "address",
          "name": "",
          "type": "address"
        },
        {
          "internalType": "uint256",
          "name": "",
          "type": "uint256"
        }
      ],
      "name": "scoreHistory",
      "outputs": [
        {
          "internalType": "address",
          "name": "user",
          "type": "address"
        },
        {
          "internalType": "uint256",
          "name": "points",
          "type": "uint256"
        },
        {
          "internalType": "string",
          "name": "category",
          "type": "string"
        },
        {
          "internalType": "string",
          "name": "proofURI",
          "type": "string"
        },
        {
          "internalType": "uint256",
          "name": "timestamp",
          "type": "uint256"
        }
      ],
      "stateMutability": "view",
      "type": "function"
    },
    {
      "inputs": [
        {
          "internalType": "address",
          "name": "",
          "type": "address"
        }
      ],
      "name": "scores",
      "outputs": [
        {
          "internalType": "uint256",
          "name": "totalScore",
          "type": "uint256"
        },
        {
          "internalType": "uint256",
          "name": "eventAttendance",
          "type": "uint256"
        },
        {
          "internalType": "uint256",
          "name": "qualityConnections",
          "type": "uint256"
        },
        {
          "internalType": "uint256",
          "name": "workshopParticipation",
          "type": "uint256"
        },
        {
          "internalType": "uint256",
          "name": "credentialVerifications",
          "type": "uint256"
        },
        {
          "internalType": "uint256",
          "name": "communityFeedback",
          "type": "uint256"
        },
        {
          "internalType": "uint256",
          "name": "lastUpdated",
          "type": "uint256"
        }
      ],
      "stateMutability": "view",
      "type": "function"
    },
    {
      "inputs": [
        {
          "internalType": "bytes4",
          "name": "interfaceId",
          "type": "bytes4"
        }
      ],
      "name": "supportsInterface",
      "outputs": [
        {
          "internalType": "bool",
          "name": "",
          "type": "bool"
        }
      ],
      "stateMutability": "view",
      "type": "function"
    },
    {
      "inputs": [
        {
          "internalType": "uint256",
          "name": "_eventWeight",
          "type": "uint256"
        },
        {
          "internalType": "uint256",
          "name": "_connectionWeight",
          "type": "uint256"
        },
        {
          "internalType": "uint256",
          "name": "_workshopWeight",
          "type": "uint256"
        },
        {
          "internalType": "uint256",
          "name": "_credentialWeight",
          "type": "uint256"
        },
        {
          "internalType": "uint256",
          "name": "_feedbackWeight",
          "type": "uint256"
        }
      ],
      "name": "updateWeights",
      "outputs": [],
      "stateMutability": "nonpayable",
      "type": "function"
    },
    {
      "inputs": [],
      "name": "workshopWeight",
      "outputs": [
        {
          "internalType": "uint256",
          "name": "",
          "type": "uint256"
        }
      ],
      "stateMutability": "view",
      "type": "function"
    }
  ],
  "bytecode": "0x608060405234610054576113886003556105dc600455610bb86005556127106006556104b060075561003033610058565b5061003a336100ce565b5061004433610161565b50604051611c4490816101f58239f35b5f80fd5b6001600160a01b0381165f9081525f516020611e995f395f51905f52602052604090205460ff166100c9576001600160a01b03165f8181525f516020611e995f395f51905f5260205260408120805460ff191660011790553391905f516020611e395f395f51905f528180a4600190565b505f90565b6001600160a01b0381165f9081525f516020611e595f395f51905f52602052604090205460ff166100c9576001600160a01b03165f8181525f516020611e595f395f51905f5260205260408120805460ff191660011790553391907fa49807205ce4d355092ef5a8a18f56e8913cf4a201fbe287825b095693c21775905f516020611e395f395f51905f529080a4600190565b6001600160a01b0381165f9081525f516020611e795f395f51905f52602052604090205460ff166100c9576001600160a01b03165f8181525f516020611e795f395f51905f5260205260408120805460ff191660011790553391907f0ce23c3e399818cfee81a7ab0880f714e53d7672b08df0fa62f2843416e1ea09905f516020611e395f395f51905f529080a460019056fe6080806040526004361015610012575f80fd5b5f3560e01c90816301ffc9a71461163457508063248a9ca3146116025780632f2ff15d146115c557806335c4b33014610fc257806336568abe14610f7e5780633dbf9b8b14610f6157806341d85e7a14610f445780635697397414610f285780635ba20c40146107575780635bed5604146105ee578063691845e41461053d57806369a2f0261461052257806373815ebb1461050557806375b238fc146104cb57806376dd110f14610452578063916e8030146103b457806391d148541461036c578063a217fddf14610352578063b45aae5214610316578063c1a0db30146102fa578063caaffae9146102de578063d47875d0146101f6578063d547741f146101b2578063e7705db614610178578063f14c85111461015b5763f71c77291461013a575f80fd5b34610157575f366003190112610157576020600454604051908152f35b5f80fd5b34610157575f366003190112610157576020600554604051908152f35b34610157575f3660031901126101575760206040517f0ce23c3e399818cfee81a7ab0880f714e53d7672b08df0fa62f2843416e1ea098152f35b34610157576040366003190112610157576101f46004356101d1611687565b906101ef6101ea825f525f602052600160405f20015490565b611ab7565b611b77565b005b346101575760203660031901126101575761020f61169d565b5f60c060405161021e816116ce565b8281528260208201528260408201528260608201528260808201528260a0820152015260018060a01b03165f52600160205260e060405f20604051610262816116ce565b815491828252600181015460208301908152600282015460408401908152600383015490606085019182526004840154926080860193845260c0600660058701549660a08901978852015496019586526040519687525160208701525160408601525160608501525160808401525160a08301525160c0820152f35b34610157575f3660031901126101575760206040516109c48152f35b34610157575f3660031901126101575760206040516101f48152f35b346101575760203660031901126101575761034e61033a61033561169d565b611952565b6040519182916020835260208301906117f4565b0390f35b34610157575f3660031901126101575760206040515f8152f35b3461015757604036600319011261015757610385611687565b6004355f525f60205260405f209060018060a01b03165f52602052602060ff60405f2054166040519015158152f35b346101575760a036600319011261015757335f9081527f7d7ffb7a348e1c6a02869081a26547b49160dd3df72d1d75a570eb9b698292ec602052604090205460ff161561041b57600480356003556024359055604435600555606435600655608435600755005b63e2517d3f60e01b5f52336004527fa49807205ce4d355092ef5a8a18f56e8913cf4a201fbe287825b095693c2177560245260445ffd5b34610157576020366003190112610157576001600160a01b0361047361169d565b165f52600160205260e060405f20805490600181015490600281015460038201546004830154916006600585015494015494604051968752602087015260408601526060850152608084015260a083015260c0820152f35b34610157575f3660031901126101575760206040517fa49807205ce4d355092ef5a8a18f56e8913cf4a201fbe287825b095693c217758152f35b34610157575f366003190112610157576020600754604051908152f35b34610157575f36600319011261015757602060405160648152f35b346101575760403660031901126101575761055661169d565b6001600160a01b03165f9081526002602052604090208054602435908110156101575761058291611818565b5060018060a01b038154166001820154916105e46105a26002830161187d565b916105d660046105b46003840161187d565b920154936040519687968752602087015260a0604087015260a08601906117f4565b9084820360608601526117f4565b9060808301520390f35b34610157576020366003190112610157576001600160a01b0361060f61169d565b165f52600260205260405f208054906106278261175f565b9161063560405193846116e9565b8083526020830180925f5260205f205f915b8383106106f757848660405191829160208301906020845251809152604083019060408160051b85010192915f905b82821061068557505050500390f35b919360019193955060208091603f19898203018552875190848060a01b03825116815282820151838201526080806106e16106cf604086015160a0604087015260a08601906117f4565b606086015185820360608701526117f4565b9301519101529601920192018594939192610676565b6005602060019260405161070a816116b3565b848060a01b03865416815284860154838201526107296002870161187d565b604082015261073a6003870161187d565b606082015260048601546080820152815201920192019190610647565b34610157576080366003190112610157576004356001600160401b03811161015757366023820112156101575780600401356107928161175f565b916107a060405193846116e9565b8183526024602084019260051b8201019036821161015757602401915b818310610f0857602435846001600160401b0382116101575736602383011215610157578160040135916107f08361175f565b926107fe60405194856116e9565b8084526024602085019160051b8301019136831161015757602401905b828210610ef8575050506044356001600160401b03811161015757610844903690600401611776565b916064356001600160401b03811161015757610864903690600401611776565b9261086d611a48565b825182518091149081610eed575b5080610ee2575b15610ea5575f5b83518110156101f4576001600160a01b036108a4828661193e565b51166108b0828561193e565b516108bb838561193e565b516108c6848961193e565b51906108d0611a48565b835f52600160205260405f20805492825160208401207fa30d69e43099d8b4ea596246f71c10a8b994728d6d2232389b5b640bc04caa4d81145f14610dc357506001820161091f86825461191d565b90555b61092d85835461191d565b8255426006830155855f52600260205260405f206040519161094e836116b3565b8783526020830187815260408401908682526060850192835260808501934285528054600160401b811015610cde5761098c91600182018155611818565b959095610db0575185546001600160a01b0319166001600160a01b039190911617855551600185015551805160028501916001600160401b038211610cde5781906109d78454611845565b601f8111610d60575b50602090601f8311600114610cfd575f92610cf2575b50508160011b915f199060031b1c19161790555b51805160038401916001600160401b038211610cde57610a2a8354611845565b601f8111610c99575b50602090601f8311600114610c1657610a9f948b9a9998948460019e9d99955f516020611bf85f395f51905f5299956004955f92610c0b575b50505f19600383901b1c1916908f1b1790555b5191015554956040519283928884526060602085015260608401906117f4565b9060408301520390a26064811080610c00575b15610af4575060805f516020611c185f395f51905f52916040519060408252600660408301526542726f6e7a6560d01b60608301526020820152a25b01610889565b6101f4811080610bf4575b15610b3f575060805f516020611c185f395f51905f52916040519060408252600660408301526529b4b63b32b960d11b60608301526020820152a2610aee565b6103e8811080610be8575b15610b88575060805f516020611c185f395f51905f52916040519060408252600460408301526311dbdb1960e21b60608301526020820152a2610aee565b6109c41180610bdc575b610b9e575b5050610aee565b60805f516020611c185f395f51905f529160405190604082526008604083015267506c6174696e756d60c01b60608301526020820152a28680610b97565b506109c4811015610b92565b506103e8821015610b4a565b506101f4821015610aff565b506064821015610ab2565b015190505f80610a6c565b90601f19831691845f52815f20925f5b818110610c81575094600185819f9e9d9c9b97956004958f9c9895610a9f9b965f516020611bf85f395f51905f529d9910610c69575b505050811b019055610a7f565b01515f1960f88460031b161c191690555f8080610c5c565b92936020600181928786015181550195019301610c26565b835f5260205f20601f840160051c81019160208510610cd4575b601f0160051c01905b818110610cc95750610a33565b5f8155600101610cbc565b9091508190610cb3565b634e487b7160e01b5f52604160045260245ffd5b015190505f806109f6565b5f8581528281209350601f198516905b818110610d485750908460019594939210610d30575b505050811b019055610a0a565b01515f1960f88460031b161c191690555f8080610d23565b92936020600181928786015181550195019301610d0d565b909150835f5260205f20601f840160051c81019160208510610da6575b90601f859493920160051c01905b818110610d9857506109e0565b5f8155849350600101610d8b565b9091508190610d7d565b634e487b7160e01b5f525f60045260245ffd5b7f6fea5b4cdef59f63376d2dd84ebcbaa73117e28b2341f0b33ea95918bf8405a18103610e02575060028201610dfa86825461191d565b90555b610922565b7f23f4ba99a558d9ecd273a512b3c9b33402af73fa128892afaec32fed757127fb8103610e39575060038201610dfa86825461191d565b7f544006588de5c786169731b56e6a394343e2b209bf776859e6968b3767998cf48103610e70575060048201610dfa86825461191d565b7fc0deaaac664792ac12f1fd40ec016a8bc7835ee168fcb0fce1fec57c9566df6a03610dfd5760058201610dfa86825461191d565b60405162461bcd60e51b8152602060048201526015602482015274082e4e4c2f240d8cadccee8d040dad2e6dac2e8c6d605b1b6044820152606490fd5b508051845114610882565b90508151148561087b565b813581526020918201910161081b565b82356001600160a01b0381168103610157578152602092830192016107bd565b34610157575f3660031901126101575760206040516103e88152f35b34610157575f366003190112610157576020600354604051908152f35b34610157575f366003190112610157576020600654604051908152f35b3461015757604036600319011261015757610f97611687565b336001600160a01b03821603610fb3576101f490600435611b77565b63334bd91960e11b5f5260045ffd5b3461015757608036600319011261015757610fdb61169d565b6024356044356001600160401b03811161015757610ffd90369060040161170a565b906064356001600160401b0381116101575761101d90369060040161170a565b92611026611a48565b60018060a01b031691825f52600160205260405f2090815491815160208301207fa30d69e43099d8b4ea596246f71c10a8b994728d6d2232389b5b640bc04caa4d81145f146114e357506001810161107f85825461191d565b90555b61108d84825461191d565b8155426006820155845f52600260205260405f20604051906110ae826116b3565b86825260208201868152604083019085825260608401998a5260808401924284528054600160401b811015610cde576110ec91600182018155611818565b949094610db0575184546001600160a01b0319166001600160a01b039190911617845551600184015551805160028401916001600160401b038211610cde5781906111378454611845565b601f8111611493575b50602090601f8311600114611430575f92611425575b50508160011b915f199060031b1c19161790555b6003820197519788516001600160401b038111610cde5761118b8254611845565b99601f8b116113e0575b899a505f9997989950602090601f83116001146113635792826004936112029896935f516020611bf85f395f51905f529a98965f92611358575b50508160011b915f199060031b1c19161790555191015554956040519283928884526060602085015260608401906117f4565b9060408301520390a2606481108061134d575b15611252575060805f516020611c185f395f51905f52916040519060408252600660408301526542726f6e7a6560d01b60608301526020820152a2005b6101f4811080611341575b1561129a575060805f516020611c185f395f51905f52916040519060408252600660408301526529b4b63b32b960d11b60608301526020820152a2005b6103e8811080611335575b156112e0575060805f516020611c185f395f51905f52916040519060408252600460408301526311dbdb1960e21b60608301526020820152a2005b6109c41180611329575b6112f057005b60805f516020611c185f395f51905f529160405190604082526008604083015267506c6174696e756d60c01b60608301526020820152a2005b506109c48110156112ea565b506103e88210156112a5565b506101f482101561125d565b506064821015611215565b015190508e806111cf565b90601f19831691845f52815f20925f5b8181106113c55750936112029896935f516020611bf85f395f51905f529a98969360019383600498106113ad57505050811b019055610a7f565b01515f1960f88460031b161c191690558e8080610c5c565b8284015185558e9b5060019094019360209384019301611373565b825f5260205f20601f830160051c81019b6020841061141b575b601f0160051c019a5b8b81106114105750611195565b5f8155600101611403565b909b508b906113fa565b015190508b80611156565b5f8581528281209350601f198516905b81811061147b5750908460019594939210611463575b505050811b01905561116a565b01515f1960f88460031b161c191690558b8080611456565b92936020600181928786015181550195019301611440565b909150835f5260205f20601f840160051c810191602085106114d9575b90601f859493920160051c01905b8181106114cb5750611140565b5f81558493506001016114be565b90915081906114b0565b7f6fea5b4cdef59f63376d2dd84ebcbaa73117e28b2341f0b33ea95918bf8405a1810361152257506002810161151a85825461191d565b90555b611082565b7f23f4ba99a558d9ecd273a512b3c9b33402af73fa128892afaec32fed757127fb810361155957506003810161151a85825461191d565b7f544006588de5c786169731b56e6a394343e2b209bf776859e6968b3767998cf4810361159057506004810161151a85825461191d565b7fc0deaaac664792ac12f1fd40ec016a8bc7835ee168fcb0fce1fec57c9566df6a0361151d576005810161151a85825461191d565b34610157576040366003190112610157576101f46004356115e4611687565b906115fd6101ea825f525f602052600160405f20015490565b611aef565b3461015757602036600319011261015757602061162c6004355f525f602052600160405f20015490565b604051908152f35b34610157576020366003190112610157576004359063ffffffff60e01b821680920361015757602091637965db0b60e01b8114908115611676575b5015158152f35b6301ffc9a760e01b1490508361166f565b602435906001600160a01b038216820361015757565b600435906001600160a01b038216820361015757565b60a081019081106001600160401b03821117610cde57604052565b60e081019081106001600160401b03821117610cde57604052565b90601f801991011681019081106001600160401b03821117610cde57604052565b81601f82011215610157578035906001600160401b038211610cde576040519261173e601f8401601f1916602001856116e9565b8284526020838301011161015757815f926020809301838601378301015290565b6001600160401b038111610cde5760051b60200190565b9080601f8301121561015757813561178d8161175f565b9261179b60405194856116e9565b81845260208085019260051b820101918383116101575760208201905b8382106117c757505050505090565b81356001600160401b038111610157576020916117e98784809488010161170a565b8152019101906117b8565b805180835260209291819084018484015e5f828201840152601f01601f1916010190565b8054821015611831575f52600560205f20910201905f90565b634e487b7160e01b5f52603260045260245ffd5b90600182811c92168015611873575b602083101461185f57565b634e487b7160e01b5f52602260045260245ffd5b91607f1691611854565b9060405191825f82549261189084611845565b80845293600181169081156118fb57506001146118b7575b506118b5925003836116e9565b565b90505f9291925260205f20905f915b8183106118df5750509060206118b5928201015f6118a8565b60209193508060019154838589010152019101909184926118c6565b9050602092506118b594915060ff191682840152151560051b8201015f6118a8565b9190820180921161192a57565b634e487b7160e01b5f52601160045260245ffd5b80518210156118315760209160051b010190565b6001600160a01b03165f908152600160205260409020546109c4811015611a21576103e88110156119fe576101f48110156119d957606411156119b55760405161199d6040826116e9565b60088152672732bbb1b7b6b2b960c11b602082015290565b6040516119c36040826116e9565b600681526542726f6e7a6560d01b602082015290565b506040516119e86040826116e9565b600681526529b4b63b32b960d11b602082015290565b50604051611a0d6040826116e9565b600481526311dbdb1960e21b602082015290565b50604051611a306040826116e9565b6008815267506c6174696e756d60c01b602082015290565b335f9081527f1da0b5176dfe03406af5a6eed66ca01dda9b45ac4da671c3fa379cb93717ef81602052604090205460ff1615611a8057565b63e2517d3f60e01b5f52336004527f0ce23c3e399818cfee81a7ab0880f714e53d7672b08df0fa62f2843416e1ea0960245260445ffd5b5f8181526020818152604080832033845290915290205460ff1615611ad95750565b63e2517d3f60e01b5f523360045260245260445ffd5b5f818152602081815260408083206001600160a01b038616845290915290205460ff16611b71575f818152602081815260408083206001600160a01b0395909516808452949091528120805460ff19166001179055339291907f2f8788117e7eff1d82e926ec794901d17c78024a50270940304540a733656f0d9080a4600190565b50505f90565b5f818152602081815260408083206001600160a01b038616845290915290205460ff1615611b71575f818152602081815260408083206001600160a01b0395909516808452949091528120805460ff19169055339291907ff6391f5c32d9c69d2a47ea670b442974b53935d1edc7fd64eb21e047a839171b9080a460019056fe185aebd584dcd96e93caac68b71057ac5cf75257d1e7f5a1e63faae79be16ec57bbe6459282f6a4f9d9cb82e64126fc918ab8bd966a0e8f5f4bddb43b2a6cf5aa164736f6c634300081c000a2f8788117e7eff1d82e926ec794901d17c78024a50270940304540a733656f0d7d7ffb7a348e1c6a02869081a26547b49160dd3df72d1d75a570eb9b698292ec1da0b5176dfe03406af5a6eed66ca01dda9b45ac4da671c3fa379cb93717ef81ad3228b676f7d3cd4284a5443f17f1962b36e491b30a40b2405849e597ba5fb5",
  "linkReferences": {},
  "deployedLinkReferences": {},
  "immutableReferences": {},
  "inputSourceName": "project/contracts/VoltzReputation.sol",
  "buildInfoId": "solc-0_8_28-9266dacdd4c202445d51b626a83e61c1293d2417"
}